:100000000C9439020C9456020C9456020C9456022D
:100010000C9456020C9456020C9456020C94560200
:100020000C9456020C9456020C94260F0C94E20E7B
:100030000C94261C0C9456020C9456020C945602F6
:100040000C9456020C9456020C9456020C945602D0
:100050000C9456020C9401100C9456020C94560207
:100060000C9456020C9456020C9456020C945602B0
:100070000C9456020C9456020C9456020C945602A0
:100080000C9456020C9456020C9456020C94560290
:100090000C9456020C9456020C9456020C94560280
:1000A0000C9456020C9456020C94560229002B0014
:1000B000000FD75CE00000001E00140004001D00CB
:1000C000340003581F001A0016001B00000F2A00FE
:1000D0002000080007420600E20029612100150007
:1000E00009411900E3004A00220017000A00050038
:1000F000000003580100015800002F0000000258C2
:10010000230034000000300000002F0024001C00F9
:100110000B00110000003000250018000D6F1000CA
:10012000E200520026000C000E00360050002C00A9
:10013000270012000F003700510028002D00130087
:100140003300380052000100310001000100D85C8A
:100150004F00000035002B00E000E100010000002E
:100160003A0014000400E100E00001003B001A0026
:1001700016001D00E20001003C00080001001B0009
:10018000E30001003D001500010006000100010030
:100190003E0017000A001900000001003F000100A6
:1001A000000005000000010040005500000024028E
:1001B0000000010041002E0226023502000001006D
:1001C00042002E0034023400E3000100430020020C
:1001D0002702360001002C0044002F002F023700B8
:1001E0000100280045003000300238000100010005
:1001F0002E0031003400E100010000000100010088
:1002000001000100010000000100010001000100E7
:1002100001000100010001000100010001000100D6
:1002200001000100010001000100010001000100C6
:1002300001000100010001000100010001000100B6
:1002400000000100010001000000010000000100A9
:100250000100010000000100000001000100010098
:10026000210201000000010001000100250201003F
:10027000010001000100230224020100010001002D
:100280000100010035000100010001000100010032
:100290000100010001000100010001000100010056
:1002A0000100000029002B003900E10001000000DE
:1002B0000100140004000100E000010001001A0028
:1002C00016000100E2000100010008000700010023
:1002D000E3002C0001001500090001002C000100C2
:1002E000010017000A0001000000010001000100E8
:1002F00000000100000001000100010000000100F9
:100300000000AE0001000100010001000000AB0090
:1003100001000100010001000100A900010001002D
:100320000100010001002C0001000100010001009A
:10033000010001002D000100010001005600AA008B
:100340002E0031003400E1000100000005010980A9
:10035000A101850319012AB700150126B7009501EF
:1003600075108100C0050C0901A101850419012A3D
:10037000A002150126A002950175108100C005019B
:100380000906A1018505050719E029E715002501E2
:100390009508750181020507190029EF150025014F
:1003A00095F075018102050819012905950575016A
:1003B0009102950175039101C005010906A101058E
:1003C0000719E029E71500250195087501810295B7
:1003D00001750881010507190029FF150026FF0096
:1003E000950675088100050819012905950575010F
:1003F0009102950175039101C009023B00020100C1
:10040000A0FA090400000103010100092111010003
:10041000012240000705810308000A0904010001C8
:1004200003000000092111010001226D000705826F
:100430000320000A1201100100000008EDFE07135E
:10044000010001020301040330000000160345000F
:10045000720067006F0064006F00780020004500A4
:100460005A00000008035A00530041000000040332
:10047000090411241FBECFEFDAE0DEBFCDBF11E0CB
:10048000A0E0B1E0EEE8FDE302C005900D92AC3EC5
:10049000B107D9F723E0ACEEB1E001C01D92AB315A
:1004A000B207E1F70E94801A0C94931E0C9400008E
:1004B000E8EDF0E080818E7F80831092E200109260
:1004C000DA001092E100A0EEB0E08C9181608C9394
:1004D00080818F77808319BCA7EDB0E08C918E7FEF
:1004E0008C9380818F7E80831092E8020895209102
:1004F000E4003091E50095E6A9012091EC00822FFF
:10050000817020FF06C08091E80080FF06C080E077
:1005100008952091E80022FD1AC080910D038823E0
:1005200089F0853089F08091EB0085FD0FC0209126
:10053000E4003091E50042175307F9F29150E1F6DB
:1005400084E0089582E0089583E0089581E00895AD
:10055000EF92FF920F931F93CF937C018B010E9428
:100560007702C82F811117C08091E80085FD0BC06C
:100570008091E8008E778093E8000E9477028823BC
:1005800099F3C82F08C0F70181917F018093F10092
:100590000150110949F78C2FCF911F910F91FF90B6
:1005A000EF90089580910F0387FF13C08091E800BA
:1005B00082FF06C08091E8008B778093E80004C03A
:1005C00080910D038111F2CF089580910D0388234E
:1005D000D9F38091E80080FFF8CF8091E8008E7712
:1005E000ECCF982F9093E900242F762F50E08917B5
:1005F00031F07091EC002091ED005091F00021FD60
:1006000007C09F5F973071F78093E90081E00895FC
:100610003091EB003E7F3093EB003091ED003D7F59
:100620003093ED003091EB0031603093EB0070932C
:10063000EC002093ED005093F0002091EE0027FD98
:10064000E0CF80E00895CF92DF92EF92FF920F9378
:100650001F93CF93DF93C8EDD0E088818F7E88838E
:10066000E7EDF0E080818160808384E082BF81E0FB
:100670008093E80288818E7F888302EE10E0F80183
:1006800010821092DA0081EEC82ED12CF601108271
:1006900088818F77888388818068888388818F7D2F
:1006A000888319BC10920D0310920E0310920C0354
:1006B00010920B0390EEE92EF12CF70180818B7FD5
:1006C000808388818160888342E060E080E00E94CE
:1006D000F102F60180818E7F8083F8018081816044
:1006E0008083808188608083F70180818E7F808312
:1006F000888180618883DF91CF911F910F91FF9056
:10070000EF90DF90CF900895FC01809115039091B8
:10071000160386179707A0F06115710529F49091CB
:10072000E8009E779093E80090E06115710551F420
:10073000911108C08091E80082FF34C080E00895E4
:10074000BC01F2CF80910D038823C1F18530C1F146
:100750008091E80083FD30C08091E80082FDEACFFF
:100760008091E80080FFE1CF8091F3002091F200BA
:10077000382F6115710519F02830310558F091E0D6
:100780002830310509F090E02091E8002E77209381
:10079000E800CBCF81918093F100615071092F5F08
:1007A0003F4FE7CF80910D03882341F0853041F022
:1007B0008091E80083FFBECF81E0089582E0089534
:1007C00083E0089508958091EA020895209112012E
:1007D0002223C9F02091C50227FF15C0E62FE69518
:1007E000E695E695EE31D8F4E80FF92FF11D677024
:1007F00021E030E001C0220F6A95EAF7209582815E
:10080000282322830895FC013296089621916213D1
:1008100003C0DF0111971C92E817F907B9F7089593
:10082000209112012223C1F02091C50227FF14C09C
:10083000E62FE695E695E695EE31F8F4E80FF92F08
:10084000F11D677021E030E001C0220F6A95EAF7E0
:100850008281822B82830895FC0132962FEF30E053
:100860004191641751F02F3F19F4411101C0232F1A
:100870003F5F3630A9F72F3F09F40895820F911D8D
:1008800027FD9A95FC01628308958091A40281114D
:100890001092A40208958091A3029091A202892B44
:1008A0009091A102892B8093EC019091A40299234D
:1008B000A1F0892B8093EC0180911201882341F1F2
:1008C0008091C50287FF24C08EE1EEEEF1E090E05A
:1008D000815000F591110E944504E091C702F0910A
:1008E000C8023097E1F080911201882359F080917D
:1008F000C50287FF07C08091EC018093ED0185E080
:100900008093EC010280F381E02D8CEE91E009945C
:1009100086E0DBCF21912223D9F29F5FD9CF0895C2
:10092000E92FEE0FE90FEE0F8E0F982F9770869537
:100930008695869525E0829FF0011124EB59FD4FA5
:1009400050E040E080E0219130E0092E02C0369571
:1009500027950A94E2F721703327042E01C0220F55
:100960000A94EAF7822B4F5F5F4F4530510559F7E4
:100970000895E92FEE0FE90FEE0F8E0F982F977065
:1009800041E001C0440F9A95EAF7869586958695D1
:1009900095E0899FF0011124EB59FD4F30E020E0F4
:1009A00070E05191DF011197CB01022E02C09695A4
:1009B00087950A94E2F7817081958527842385279E
:1009C0008C932F5F3F4F2530310559F70895809163
:1009D000640290913302981301C008958F5F87706D
:1009E000FACF882341F080959091A20289238093C9
:1009F000A2020C944B040895882339F09091A2022E
:100A0000982B9093A2020C944B040895882341F0F4
:100A100080959091A30289238093A3020C944B04A8
:100A20000895882339F09091A302982B9093A30204
:100A30000C944B0408952091170230911802281746
:100A4000390771F09093180280931702E091C70262
:100A5000F091C802309721F00084F185E02D0994CF
:100A6000089520911502309116022817390771F068
:100A70009093160280931502E091C702F091C8028C
:100A8000309721F00680F781E02D099408951092A7
:100A9000A2021092A1020E944B0490E080E00E940A
:100AA000310590E080E00C941B056093A5027093E3
:100AB000A6028093A7029093A8020C94470588236E
:100AC00079F19CEF980F913A38F4682F8CEE91E011
:100AD0000E94E6030C944B0490E2980F983088F43F
:100AE000877021E030E0A90102C0440F551F8A95AC
:100AF000E2F7CA0180959091A30289238093A30213
:100B0000E9CF9BE5980F933020F490E080E00C94BF
:100B10003105885A873120F490E080E00C941B0561
:100B20000895CF93C82F882309F467C08CEF8C0FEA
:100B3000813AC0F580911201882311F18091C5029C
:100B400087FF1EC0EC2FE695E695E695F0E0E451B0
:100B5000FE4F828190E04C2F477021E030E002C0D0
:100B6000220F331F4A95E2F782239323892B91F0BA
:100B70006C2F8CEE91E00E94E6030E944B040AC0A9
:100B8000EEEEF1E084EF91E02191C21789F38E1728
:100B90009F07D1F76C2F8CEE91E00E941004CF914B
:100BA0000C944B0480E28C0F883068F4C77021E00D
:100BB00030E001C0220FCA95EAF78091A302822B90
:100BC0008093A302ECCFEBE5EC0FE33040F4F0E0D0
:100BD000E554FE4F808190E0CF910C943105C85AC6
:100BE000C73158F4EC2FF0E0EE0FFF1FE254FE4F38
:100BF00080819181CF910C941B05CF910895E09154
:100C0000C702F091C802309721F00190F081E02DE9
:100C1000099480E008959091C50292FF06C0282FA4
:100C200028712830F9F4877F846093FF06C0282F4D
:100C300028712831F1F4877E84612091C60220FF5B
:100C400006C0382F38713830D9F4877F816021FF92
:100C500006C0282F28712831D1F4877E816194FD48
:100C6000877E0895282F24712430F9F68B7F8860C1
:100C7000DCCF282F2471243101F78B7E8861DDCFF2
:100C8000382F3171313019F78E7F8860E0CF282FEF
:100C90002171213121F78E7E8861E1CFCF93DF93DF
:100CA000972F70E026E0929F600D711D1124FB01CB
:100CB00034E5839FE00DF11D1124EE0FFF1FE45575
:100CC000FF4FC591D491CE01C238D105B9F1E8F5F5
:100CD000C133D10509F499C050F5C932D10509F4E1
:100CE0008DC0CA32D10509F497C0C11542E5D407B9
:100CF00008F0B6C0C11521E5D20708F02EC1C83EE4
:100D0000D10508F09DC0C03ED10568F5C83AD105AF
:100D100008F089C0C53AD10508F0F7C0C130D10547
:100D200011F1209709F443C02497E8F440C0C5337B
:100D3000D10509F45CC0C933D105B9F62091C502CB
:100D4000237089F080EE90E00EC0C33ED10591F192
:100D500068F4C03ED105F9F0C23ED10531F62091CC
:100D6000C50222FD20C0DF91CF910895C63ED10576
:100D700061F1C73ED10581F1C43ED10509F0B5CF7F
:100D80002091C60221FFEFCF8091C50284FD0FC0E4
:100D900087EE90E0E8CF2091C50220FD0EC1309192
:100DA000C60230FFE0CF83EE90E024FFDCCF90E07E
:100DB00080E0D9CF2091C50222FD02C13091C60248
:100DC00030FDC0CF24FFCFCFF2CF2091C50223FF4B
:100DD000CACF24FDECCFDCCF2091C50223FDF3C0A8
:100DE0003091C60231FFEECF84EE90E0BCCF20916F
:100DF000C50225FFB8CF89E290E0B5CF2091C502AA
:100E000025FFB1CF85E390E0AECF2091C50226FF4C
:100E1000AACF8AE290E0A7CF2091C50226FFA3CFF8
:100E200081E390E0A0CFCF3BD10508F6C85AD0E0CF
:100E3000CC0FDD1FC254DE4F88819981946493CF1B
:100E4000C11530E5D30708F06CC0C11540E4D407E4
:100E500008F063C0DA95C115DF4108F484CFA7CF4D
:100E6000C11536E5D30718F5C11545E5D40708F0D7
:100E70008AC0C11584E5D80708F080C09C2F9695DC
:100E80009695AE0143705527C115D34508F46AC045
:100E900021E030E002C0220F331F4A95E2F740E222
:100EA000949FC0011124822B932B9A685CCFC115AB
:100EB0003AE5D30778F4C11549E5D40708F06DC0C9
:100EC000C11588E5D80708F472CF9C2F8827806F5A
:100ED000906A49CFC1159BE5D90708F468CFCE01C8
:100EE000C1152CE5D20708F465C0905681159042D3
:100EF00008F05DCF8D2F8F710E940B0690E0982F28
:100F0000882788279F718C2B46C0C55AD0E0C554CE
:100F1000DE4F888190E0906426CFCE019F70906A6A
:100F200022CF9E01E4E036952795EA95E1F72370FC
:100F30008C2F86958695837040E2849FC001112492
:100F4000922BC37021E030E002C0220F331FCA95FC
:100F5000E2F7822B932B9C6806CF9C2F8827816F0A
:100F6000906A01CF21E030E002C0220F331F4A9582
:100F7000E2F740E2949FC0011124EBCF9C2F882719
:100F8000846F906AF0CE8C2F0E940B0690E0982F11
:100F9000882788279F719062E6CE8C2F8F700E94E1
:100FA0000B0634E0D695C7953A95E1F7CF709C2FA4
:100FB0009069D9CE99279066D6CE89E390E0D3CEBA
:100FC00082EE90E0D0CE86EE90E0CDCEBF92CF9272
:100FD000DF92EF92FF920F931F93CF93DF938C01D9
:100FE000C0909C02D0909D02E0909E02F0909F02E3
:100FF0008091A5029091A602A091A702B091A802AB
:10100000C82AD92AEA2AFB2ACFE1D0E0BC2ED70190
:10101000C6010C2E04C0B695A795979587950A949E
:10102000D2F780FD0EC0219788F7B12C8B2DDF9170
:10103000CF911F910F91FF90EF90DF90CF90BF90D5
:101040000895B8018C2F0E944E06019761F3EECFF0
:10105000CF93DF93EC010E94E607BE01DF91CF91B1
:101060000C944E060E942808292F2F7092959F708D
:1010700092509E3078F4E92FF0E0EB56F14E0C944C
:101080001A1D803F19F020F4883E20F481E0089575
:10109000843FE1F380E00895883EC0F3813FD1F7BB
:1010A000F5CF822F869586958695089527982F9857
:1010B000089526982E98089525982D980895569865
:1010C0005E980895279A2F9A0895269A2E9A089541
:1010D000259A2D9A0895CF92DF92EF92FF92CF93A7
:1010E0006B017C01C701AA27BB27C0E10097A105BE
:1010F000B10519F4D701CB01C0E0492F5A2F6B2F4E
:101100007727411551056105710519F0C85FDB01AD
:10111000CA01AC01BD01E4E0769567955795479506
:10112000EA95D1F7411551056105710519F0CC5FBC
:10113000DB01CA01AC01BD0132E076956795579598
:1011400047953A95D1F7411551056105710519F09B
:10115000CE5FDB01CA01B695A79597958795892B38
:101160008A2B8B2B09F0CF5F0E945F080E945C08DE
:101170000E9459080E945608C150C73040F4EC2F15
:10118000F0E0ED55F14E0C941A1D0E946808C7015D
:10119000B601CF91FF90EF90DF90CF9008950E941D
:1011A00068080E946508F3CF0E9468080E946208E0
:1011B000EECF0E9468080E946508F8CF0E946B0875
:1011C00060939C0270939D0280939E0290939F0275
:1011D0000C9447050F931F9341E050E060E070E0EE
:1011E00004C0440F551F661F771F8A95D2F7CB01A5
:1011F000BA01609570958095909500919C02109130
:101200009D0220919E0230919F02602371238223D0
:1012100093231F910F910C94DE089091A00280956A
:1012200089238093A002282F277071F4282F082E7D
:10123000000C330B9217130639F08595859585952B
:101240000E94EA081092A00208950F931F9341E0B4
:1012500050E060E070E004C0440F551F661F771F28
:101260008A95D2F780919C0290919D02A0919E0256
:10127000B0919F028A019B01082B192B2A2B3B2B33
:10128000C901B8011F910F910C94DE0884B1807FD1
:1012900084B985B1807F85B98AB1837F8AB98BB1E2
:1012A000837F8BB93E984698089580B38C7080BB3D
:1012B00081B3836F81BB0895CF9384E090E00E9457
:1012C000201DC82F81E290E00E94201D982F8C2FB6
:1012D000CF910895CF93DF9300D00F92CDB7DEB7B3
:1012E00090910D03943019F589837B836A8382E0A2
:1012F0008093E9008FEF9091E800815095FD06C042
:1013000095ED9A95F1F700008111F5CF8091E800F5
:1013100085FF0DC050E040E063E070E0CE01019633
:101320000E94A8028091E8008E778093E8000F90D9
:101330000F900F90DF91CF91089520910D032430ED
:1013400021F4BC0184E00C946A090895BC0183E097
:101350000C946A09CF93DF93EC0180910D038430E4
:10136000B9F5809112018823B1F18091C50287FF00
:1013700032C060E282E08093E9008FEF9091E80054
:10138000815095FD06C095ED9A95F1F70000811109
:10139000F5CF8091E80085FF1BC08091120170E0BD
:1013A00050E040E0811104C050E040E068E070E0AF
:1013B000CE010E94A8028091E8008E778093E80019
:1013C00080E2FE01ABEEB2E001900D928A95E1F76A
:1013D000DF91CF91089568E081E0CDCFCF93C82F02
:1013E0000E949105C93349F42FEF87EE93E0215015
:1013F00080409040E1F700C000008C2FCF910C940A
:101400005F05EF92FF920F931F93CF93DF930E949C
:101410005F080E945C080E9459080E94560888E8EC
:10142000E82EF12C8FEF90E0F701918380830AE89A
:1014300010E0F80191838083CCE8D0E09983888321
:101440000E946808FFEF20E782E0F15020408040D2
:10145000E1F700C000000E9465089FEFE0E7F2E0BE
:101460009150E040F040E1F700C000000E946208A7
:101470002FEF80E792E0215080409040E1F700C0DC
:1014800000000E945C08EFEFF0E722E0E150F0403E
:101490002040E1F700C000000E9459088FEF90E75C
:1014A000E2E081509040E040E1F700C000000E947F
:1014B00056088091B3028770FFEF8F9FC0011124FF
:1014C00095958795959587959927F70191838083C1
:1014D000F80191838083998388830E945F080E942A
:1014E0005C080E945908DF91CF911F910F91FF90E6
:1014F000EF900C9456086FEE7EEF90E080E00E9433
:10150000521D60E082E090E00E94341D60E083E0C4
:1015100090E00E94341D1092A5021092A602109233
:10152000A7021092A80260E084E090E00E94341DBF
:1015300060E081E290E00E94341D60E085E090E090
:101540000E94341D60E086E090E00E94341D6FEF41
:1015500087E090E00E94341D40E050E0BA0188E04E
:1015600090E00E94461D60E08DE090E00E94341DF6
:1015700040E050E0BA0188E190E00E94461D60E042
:1015800087E190E00E94341D40E050E0BA018CE118
:1015900090E00E94461D60E080E290E00E94341DD1
:1015A0001092B3021092B4021092B5021092B602D9
:1015B00084E080618093B3024091B3025091B40201
:1015C0006091B5027091B6028FE090E00E94461DD6
:1015D00040E050E0BA0183E190E00C94461D109287
:1015E000A30280911201EEEEF1E0882359F0809180
:1015F000C50287FF07C08EE1DF011D928A95E9F7DA
:101600000C94470586E0F8CF1F93CF93DF93CDB7B7
:10161000DEB7AA970FB6F894DEBF0FBECDBF8FE03E
:1016200093E02091F100FC012193CF01F3E0873199
:101630009F07B9F780911003833009F46FC0B8F4A5
:10164000813009F446C0823009F4B0C08091E800CE
:1016500083FF87C280910F03909110039A3008F0A6
:1016600080C2E92FF0E0E655F14E0C941A1D8A3045
:1016700009F48BC08B3009F46EC0893039F7809142
:101680000F03813219F7809113039091140302978D
:10169000E8F68091E800877F8093E8008091E80079
:1016A00082FF37C09091F3008091F200029729F4F5
:1016B0008091F1008B7F813021F48091F100809343
:1016C000EA028091E8008B778093E8000E94D202C2
:1016D000BDCF80910F03813A09F0B8CF8091E80027
:1016E000877F8093E8008091130390911403892BE6
:1016F00061F460E28BEE92E070E00E9484038091DE
:10170000E8008B778093E800A1CF60E090E080E074
:10171000F3CF80910D038111C1CF98CF80910F033A
:10172000813A09F093CF8091130390911403892B90
:1017300009F08CCF8091E800877F8093E80080914A
:10174000E80080FFFCCF809112018093F10080912E
:10175000E8008E77B9CF80910F03813209F076CF00
:101760008091130390911403892B09F06FCF80911E
:10177000E800877F8093E8000E94D20280911103E5
:10178000809312010E94EF0A61CF80910F03813292
:1017900009F05CCF8091E800877F8093E8000E9489
:1017A000D202809112038093E90250CF80910F03FF
:1017B000813A09F04BCF8091E800877F8093E80061
:1017C0008091E80080FFFCCF8091E902BECF803895
:1017D00099F0823809F0C5C1809113038F7087306A
:1017E00008F0BFC18093E9008091EB0085FB88275A
:1017F00080F91092E90006C080910B0390910C03D0
:10180000911182609091E800977F9093E800809317
:10181000F1001092F1008091E8008E779EC188233C
:1018200009F48CC1823009F09CC1809111038111AF
:101830008FC1809113038F702FEF280F263008F08F
:1018400090C18093E9002091EB0020FF81C193308B
:1018500031F48091EB0080628093EB0079C190912C
:10186000EB0090619093EB0021E030E001C0220F8B
:101870008A95EAF72093EA001092EA008091EB0043
:101880008860EACF81116DC1109111031F7780919B
:10189000E3008078812B8093E3008091E800877FCC
:1018A0008093E8000E94D2028091E80080FFFCCF84
:1018B0008091E30080688093E30082E0111183E06F
:1018C00080930D034EC18058823008F04AC1809148
:1018D0001103909112038C3D23E09207A1F583E060
:1018E0008A838AE289834FB7F894DE01139620E059
:1018F0003EE051E2E32FF0E050935700E49120FFE7
:1019000003C0E295EF703F5FEF708E2F90E0EA30FA
:10191000C0F0C7968D939D932F5F243159F74FBF29
:101920008091E800877F8093E8006AE270E0CE0152
:1019300001960E9484038091E8008B778093E800F1
:1019400010C1C096E7CF4091130350911403292F83
:1019500033272330310509F445C078F521303105AE
:1019600009F47BC08BE390E0E9EFF3E0223031052E
:1019700009F0F7C02091E800277F2093E80020912C
:101980001503309116038217930708F49C0140E079
:101990002115310509F070C041116EC08091E80039
:1019A00082FDC9CF80910D03882329F2853019F279
:1019B0008091E80083FFF2CFBECF2132310509F4D8
:1019C00040C02232310509F0CCC04115510509F45F
:1019D0004EC04130510509F0C4C08DE690E0ECE402
:1019E000F3E0C8CF992781309105D9F0009771F0C5
:1019F00082309105F1F0039709F0B3C0E6E4F4E01A
:101A0000E4918E2F90E0E6E4F4E007C0EEE6F4E027
:101A1000E4918E2F90E0EEE6F4E0009709F4A1C087
:101A2000A9CFE4E6F4E0E4918E2F90E0E4E6F4E060
:101A3000F4CFECE4F4E0E4918E2F90E0ECE4F4E0F9
:101A4000ECCF4115510571F04130510509F089C0C5
:101A500089E090E0E4E2F4E08DCF82E190E0E4E31D
:101A6000F4E088CF89E090E0EBE0F4E083CF80E41D
:101A700090E0E9EBF3E07ECF80910D03882309F439
:101A80005ACF853009F457CF8091E80083FD53CFBA
:101A90008091E80082FD82CF8091E80080FF78CFBE
:101AA0009091F3008091F2002115310519F08830F2
:101AB000910550F041E0089709F040E08091E8007E
:101AC0008E778093E80064CF44914093F100319683
:101AD000215031090196E8CF803809F042C0809149
:101AE000E800877F8093E80080910E038093F100E7
:101AF00092CE811136C010911103123090F5809171
:101B0000E800877F8093E80010930E030E94D202C2
:101B1000112311F084E005C08091E30087FDFACF26
:101B200081E080930D0342E061EC81E00E94F102CC
:101B300042E261EC82E00E94F10213C08091110345
:101B4000813079F481E0933009F080E080930C03D8
:101B50001092E9008091E800877F8093E8000E945E
:101B6000D2028091E80083FF0AC08091E800877F5D
:101B70008093E8008091EB0080628093EB00AA964E
:101B80000FB6F894DEBF0FBECDBFDF91CF911F918E
:101B90000895CF93C82F873070F5809106019091FA
:101BA0000701892B89F564E670E080E40E94531CEC
:101BB0009093070180930601892BD1F464E670E0CD
:101BC00082E10E94AF1C9093070180930601892B4C
:101BD00079F481E090E001C0880FCA95EAF764E6E5
:101BE00070E080950E94AF1C9093070180930601DE
:101BF000CF910C94021D8A30B9F040F4883071F016
:101C0000893079F0209A2898CF9108958C3091F0FE
:101C100070F08D30B9F73E9A4698F6CF219A299800
:101C2000F3CF229A2A98F0CF239A2B98EDCF529A8D
:101C30005A98EACF539A5B98E7CF80E290E090936E
:101C40000701809306018091120281110EC00E944B
:101C50004D1C81E0809312022FEF83ED90E3215021
:101C600080409040E1F700C0000064E670E080E44E
:101C70000E94531C9093070180930601892B09F061
:101C80004EC064E670E080E00E94AF1C90930701B4
:101C900080930601892B09F042C064E670E080E081
:101CA0000E94AF1C9093070180930601892BB9F520
:101CB00064E670E08FE30E94AF1C9093070180936D
:101CC0000601892B61F50E94021D64E670E080E444
:101CD0000E94531C9093070180930601892BF9F40D
:101CE00064E670E08CE00E94AF1C90930701809343
:101CF0000601892BA1F464E670E080E00E94AF1C2D
:101D00009093070180930601892B49F464E670E003
:101D10008FE30E94AF1C90930701809306010E94FD
:101D2000021D809106010895CF93873008F040C0CE
:101D30008091060190910701C0E0892B71F464E65F
:101D400070E080E40E94531C909307018093060189
:101D5000892B31F0C0E00E94021D8C2FCF91089595
:101D600064E670E083E10E94AF1C909307018093CA
:101D70000601892B79F764E670E081E40E94531C28
:101D80009093070180930601892B21F784E690E068
:101D90000E94DE1C97FF05C0909307018093060107
:101DA000D9CFC82FC0951092070110920601D3CF4A
:101DB000CFB18FB1869586958C73C3708C2BC82F4D
:101DC000C095CBCF1F920F920FB60F9211242F9375
:101DD0003F934F935F936F937F938F939F93AF93B3
:101DE000BF93CF93DF93EF93FF93D091E900DF7020
:101DF0008091EC00C82FC17080FDC0E81092E9000E
:101E00008091F000877F8093F00078940E94040B0B
:101E10001092E9008091F00088608093F000CD2B53
:101E2000CF70C093E900FF91EF91DF91CF91BF9107
:101E3000AF919F918F917F916F915F914F913F9162
:101E40002F910F900FBE0F901F9018951F920F9219
:101E50000FB60F9211242F933F934F935F936F937D
:101E60007F938F939F93AF93BF93EF93FF93809153
:101E7000E10082FF09C08091E20082FF05C08091ED
:101E8000E1008B7F8093E1008091DA0080FF24C025
:101E90008091D80080FF20C08091DA008E7F8093EF
:101EA000DA008091D90080FF9FC080E189BD82E186
:101EB00089BD09B400FEFDCF81E080930D038091C0
:101EC000E802811109C00E9458020E9423038091F8
:101ED000E20084608093E2008091E10080FF17C0FF
:101EE0008091E20080FF13C08091E2008E7F80939A
:101EF000E2008091E20080618093E2008091D8004E
:101F000080628093D80019BC85E080930D03809196
:101F1000E10084FF2DC08091E20084FF29C080E1B0
:101F200089BD82E189BD89B5982F917080FFFBCF73
:101F30008091D8008F7D8093D8008091E1008F7EC2
:101F40008093E1008091E2008F7E8093E200809197
:101F5000E20081608093E20080910E03882309F4FF
:101F600049C084E080930D030E94EF0A0E94FF05A0
:101F70008091E10083FF27C08091E20083FF23C0AE
:101F80008091E100877F8093E10082E080930D03E0
:101F900010920E038091E1008E7F8093E10080918A
:101FA000E2008E7F8093E2008091E2008061809366
:101FB000E20042E060E080E00E94F1028091F000E7
:101FC00088608093F000FF91EF91BF91AF919F9156
:101FD0008F917F916F915F914F913F912F910F90D2
:101FE0000FBE0F901F90189519BC10920D03109200
:101FF000E80272CF8091E30087FD93E090930D0398
:10200000B3CF78941F921FB61F9211248F939F9382
:10201000AF93BF938091A9029091AA02A091AB02C5
:10202000B091AC020196A11DB11D8093A9029093BD
:10203000AA02A093AB02B093AC02BF91AF919F9163
:102040008F911F901FBE1F9018952FB7F894809105
:10205000A9029091AA02A091AB02B091AC022FBF4D
:1020600008951F93CF93DF93C62FD42F122FFC0117
:102070008281882399F0609328020E942510909312
:10208000140280931302C77081E001C0880FCA95C3
:10209000EAF7DF91CF911F910C94110580912802EE
:1020A000861340C020911302309114029FB7F89418
:1020B0004091A9025091AA026091AB027091AC02CA
:1020C0009FBF421B530B483C510560F5C0E2CD0F4A
:1020D0008D17C1F090E2980F983048F4877091E026
:1020E00001C0990F8A95EAF7892F0E940605C8302A
:1020F00048F481E09D2F977001C0880F9A95EAF708
:102100000E941105812F0E94EE09C83090F4D7700B
:1021100081E001C0880FDA95EAF7DF91CF911F9136
:102120000C940605C77081E001C0880FCA95EAF7D4
:10213000F4CFDF91CF911F9108954F925F926F92EC
:102140007F928F929F92AF92BF92CF92DF92EF9247
:10215000FF920F931F93CF93DF9300D000D00F9285
:10216000CDB7DEB76C01FC0183819481892B39F0F6
:102170001081F180812F8F218F3F09F0F9C50F90D9
:102180000F900F900F900F90DF91CF911F910F91B3
:10219000FF90EF90DF90CF90BF90AF909F908F9087
:1021A0007F906F905F904F9008950E94E607082FF0
:1021B000682F89819A810E94B904E12FF0E026E01E
:1021C000F29EE00DF11D112434E5039FE00DF11D99
:1021D0001124EE0FFF1FE455FF4F059114910930B4
:1021E0008DE51807F1F5F6018281882309F44DC0C9
:1021F0008091B30291E0980F9770887F953008F432
:10220000892B8093B3028091B3028770FFEF8F9F79
:10221000C001112495958795959587959927909359
:1022200089008093880090938B0080938A0090931C
:102230008D0080938C004091B3025091B402609164
:10224000B5027091B6028FE090E00E94461D609149
:102250009C0270919D0280919E0290919F020E942B
:102260006B08F6018281882309F45AC09801215E27
:102270003C452530310508F053C06FE1600F609395
:10228000AF028CE090E00E94341DF6018281882329
:1022900009F47FC5109228020230FCE51F0708F4FC
:1022A00086C506312CE5120738F098012A5F3C45B7
:1022B0002730310508F07BC50E945C099093C60267
:1022C0008093C5020F303CE5130709F4B8C108F04C
:1022D00032C108309CE5190709F49BC108F007C119
:1022E0000430FCE51F0709F488C108F0EDC0023096
:1022F0003CE5130709F479C103301C4509F479C1A1
:102300006091C5021091C60284E090E00E94341DE5
:10231000612F81E290E00E94341D0E94EF0A91C07B
:1023200017FF74C0882309F4B0CF8091A302809373
:1023300027021092A3028091AF02813009F441C0BC
:102340008823D9F1823009F449C0843009F44DC0A2
:102350008FE39CE90197F1F700C000005801E89471
:10236000B7F8ECE0EE2EF12C95010E2C02C036955C
:1023700027950A94E2F72F7087E290E029F0822FE8
:1023800090E02A30B8F54D960E94EE0994E0E91AE3
:10239000F108ECEFEE16EFEFFE0631F78091AF0299
:1023A000813071F1882341F1823031F1843061F163
:1023B000809127028093A30268CF82EE0E9491054C
:1023C000C7CF83E00E94FC0488E10E94910588E168
:1023D0000E945F0583E00E94F104BACF82EE0E9462
:1023E000910587E50E94EE09B3CF86EE0E94EE09C3
:1023F00088E1F8CF0697C8CF82EE0E945F05D8CF5C
:102400008CE20E94EE09D4CF88E2FBCF033FFCE5CB
:102410001F0709F44AC0B8F5083D3CE5130709F465
:1024200040C0093D8CE5180709F44BC0073D9CE509
:10243000190709F02ACF26E241EE61EEC6010E949B
:1024400031108091A002877009F499CEF601828143
:10245000882309F494CE82E00F900F900F900F9094
:102460000F90DF91CF911F910F91FF90EF90DF9030
:10247000CF90BF90AF909F908F907F906F905F9024
:102480004F900C940D09053FECE51E07B1F088F064
:10249000063F2CE5120709F0F8CE27E245EE66EE7E
:1024A000CDCF27E245EE65EEC9CF26E241EE60EEE4
:1024B000C5CF27E245EE64EEC1CF26E241EE62EEE3
:1024C000BDCF28E241E0EFCF8091C50280610630A8
:1024D0009CE5190709F447C08091C5028860073060
:1024E0001C4508F440C08091C50280623CC00B309E
:1024F000FCE51F0709F49BC068F409303CE51307AD
:1025000009F48BC00A301C4509F0FACE8091C5024F
:102510008C6029C08091C5028B7F0D309CE5190726
:1025200011F18091C5028D7F0E301C45E0F0809145
:10253000C502877F18C00A3FFCE51F0709F461C088
:1025400060F502313CE5130709F481C078F40031ED
:102550009CE5190709F477C08091C5028F7B013192
:102560001C4509F0CDCE8093C502CACE0431FCE5EE
:102570001F0709F47AC008F470C005311C4509F042
:10258000BFCE8091C50282FB992790F921E0922766
:1025900090FB82F990FB83F9E6CF0D3F8CE518079D
:1025A00009F449C070F40B3FECE51E0771F180910E
:1025B000C6028E7F0C3F1C4509F0A2CE8093C60256
:1025C0009FCE0F3F2CE5120709F44BC060F10115B7
:1025D0001D4509F095CE8091C602982F9095917077
:1025E0008E7F892B90FB81F9E9CF8091C5028160B4
:1025F000BACF8091C5028260B6CF8091C502846057
:10260000B2CF8091C6028160D9CF8091C60282602C
:10261000D5CF8091C5028064A6CF0E94EF0A809139
:10262000C5028068A0CF8091C6028360C7CF809129
:10263000C5028E7F98CF8091C6028D7FBFCF8091DB
:10264000C5028F7E90CF8091C5028F7D8CCF0E9476
:10265000EF0A8091C5028F7786CF8091C502837F74
:1026600082CF8091C6028C7FA9CF0E94EF0A909101
:10267000C502892F97FB87F9805875CF882349F0C9
:1026800001159CE5190709F44EC00E3D1C4509F4DF
:1026900087C0F60100811181882309F484C0C80134
:1026A0000E94E607F82E682FC8010E94B904B801FD
:1026B0008F2D0E944E06082FF92EB82EF601E580C8
:1026C000E2947FE0E722128111111092A202809120
:1026D000A0028770C1F01123B1F08F2D807F80346C
:1026E00049F090E2900F983070F0803619F4F6EFD0
:1026F000BF1649F082E00E940D098091A002877008
:10270000AA24A3948111A12C9F2C92945FE095227E
:102710006BE0462E491408F481C0E92DF0E0EC543A
:10272000F14E0C941A1D0E94EF0AFFEF24E33CE0E7
:10273000F15020403040E1F700C00000F89481E003
:102740008093E00080E28093D8001092C9008FE16E
:102750009EE40197F1F700C000001DBA10926800D6
:102760001CBC10BE1FBA10927A0010926E0010921C
:102770006F0010927100109272001092C9001092B6
:10278000BC0014B817B81AB81DB810BA1092BC0023
:1027900015B818B81BB81EB811BA0C94003F51CE2A
:1027A0000E947B0A4ECEC8010E949004F82E7FCF73
:1027B0002F2D2F70E22E8F2D807F19F0E29440EFA5
:1027C000E4221123C9F0EE2069F080E2800F883006
:1027D00010F0B1100BC08091A302E82AE092A3028E
:1027E0000E944B04802F0E94910518C08091A20284
:1027F000E82AE092A202F4CF802F0E945F05EE202B
:1028000069F0E094005E083010F0B11057C080917C
:10281000A302E822E092A3020E944B04292D285033
:10282000330B2430310510F40E94FF05112379F099
:102830008F2D807F803619F436EFB31641F08091EA
:102840002A02823009F08CC283E080932A02AA20F7
:10285000A9F08091A00280FD11C0F6011282859539
:10286000859585950E942509C6010E949D1080913D
:10287000A0028595859585950E94EA0885E0F60178
:10288000DE01119601900D928A95E1F789819A8176
:102890000E9490049A81E981F0E026E0929FE00D89
:1028A000F11D112434E5839FE00DF11D1124EE0F7D
:1028B000FF1FE455FF4F8591949161CC8091A20256
:1028C000E822E092A202A8CF3F2D3F70832E8F2DE9
:1028D000807F803219F0829430EF8322BB2041F058
:1028E00081E0B81631F1112381F1EE2049F17ACF60
:1028F000112391F09091A402892F8829E11003C03F
:102900000E9411058BCFE1E0EE12FACF891709F48E
:1029100085CF8093A40282CFE11006C00E944504B7
:10292000882D0E9406057ACFF1E0EF1609F476CFE4
:10293000F5CF112339F0442443944E1408F46ECF9C
:10294000882DDECFE1106ACFEBCFEE2049F329E3EB
:10295000522EB51009C02FEF37EE83E021503040E2
:102960008040E1F700C00000802F0E945F0556CF35
:102970008F2D86958695837069F0813009F04ECF52
:10298000802F9F2D9370111102C090E080E00E9473
:102990001B0544CF802F9F2D9370111102C090E032
:1029A00080E00E9431053ACF8F2D837009F067C017
:1029B000111134CF202F229526952770220F220F38
:1029C000402F4F7050E070E060E0022E04C0440FD2
:1029D000551F661F771F0A94D2F780E090E0DC0154
:1029E00004FF0FC08FE090E0A0E0B0E004C0880FCB
:1029F000991FAA1FBB1F2A95D2F780959095A09585
:102A0000B0952F2D269526952370223029F1D8F4E4
:102A10004090A5025090A6026090A7027090A80274
:102A2000213069F0842B952BA62BB72BBC01CD014F
:102A300064217521862197210E945505EFCE4429F6
:102A40005529662977292A013B01482A592A6A2AE9
:102A50007B2AC301B201F0CF842B952BA62BB72B79
:102A60004090A5025090A6026090A7027090A80224
:102A7000BC01CD016425752586259725DDCF86957A
:102A8000112311F08F2D8170882309F4C7CE202FD8
:102A9000229526952770220F220F402F4F7050E06D
:102AA00070E060E0022E04C0440F551F661F771FC0
:102AB0000A94D2F780E090E0DC0104FF0FC08FE0C1
:102AC00090E0A0E0B0E004C0880F991FAA1FBB1FD0
:102AD0002A95D2F780959095A095B0952F2D2695A3
:102AE00026952370223029F1D8F440909C02509012
:102AF0009D0260909E0270909F02213069F0842BAD
:102B0000952BA62BB72BBC01CD0164217521862105
:102B100097210E94DE0882CE44295529662977290B
:102B20002A013B01482A592A6A2A7B2AC301B20199
:102B3000F0CF842B952BA62BB72B40909C02509066
:102B40009D0260909E0270909F02BC01CD016425A1
:102B5000752586259725DDCF2F2D2F70E22E112389
:102B600029F0822F0E942509802FCACE802F0E9433
:102B700006058E2D0E94EA0851CE802F32EFB31643
:102B800009F452C03B1578F090EFB91629F1E1EF46
:102B9000BE1609F441C0112309F46AC0E11022CE27
:102BA0008F2D8F713EC0F3EFBF1609F442C094EF32
:102BB000492EB410F0CF112309F44FC00F2D0F711F
:102BC000802F0E94250928E0029FC0011124836004
:102BD0008093A002802F25C01123C1F0E1101ECEEA
:102BE0002F2D2F7161E070E080E090E004C0660F4F
:102BF000771F881F991F2A95D2F740909C0250900A
:102C00009D0260909E0270909F02A1CF5524539424
:102C10005E1408F403CEE4CF8F2D8F71112309F4D5
:102C2000A9CF0E942509FACD8F2D8F711123C9F3E9
:102C3000A1CF60E070E0CB01112309F46ACF2F2D02
:102C40002F7161E070E080E090E004C0660F771FB4
:102C5000881F991F2A95D2F75CCF81E00E940D0949
:102C600031E03E1508F0DACD82E00E940D09D6CDA4
:102C7000EE2059F0893309F077CE8FEF97EEE3E03D
:102C800081509040E040E1F76DCE8F2D8F7172CF73
:102C9000E0E1E00FE73008F03EC0F0E0E054F14E34
:102CA0000C941A1D112309F4B9CD80912C0291E0E6
:102CB000892780932C02B2CD10932C02AFCD81E0F6
:102CC0008127F7CF1111AACD81E0F3CF1111A6CD45
:102CD00010922C02A3CD112321F082E080932A02CE
:102CE000F3CF80912A02823021F481E080932A027E
:102CF00095CD833009F092CD10922A02E9CF1123AD
:102D000039F080912B02882381F210922B0286CD1C
:102D1000EE2059F283CD80912B02EE20A9F088237A
:102D200041F080912C0291E0892780932C0210922F
:102D30002B02802F111157CD0E945F0586E0F6010E
:102D400011928A95E9F76ACD882309F467CD1111AC
:102D500065CD80912C0291E0892780932C02D5CFFC
:102D6000813009F074CD10922A0210922C026FCD9E
:102D700085E0DE01119601900D928A95E1F7F6014A
:102D8000228189819A81211110CA0E949004082F02
:102D900014CA06311C4509F07CCC8091290269E2F5
:102DA000811165E38CEE91E00E94E60314C00631C8
:102DB0002CE5120709F062CC8091A3028A7A91E097
:102DC00009F490E09093290269E2811165E38CEEA9
:102DD00091E00E9410040E944B0433CB1F93CF93C9
:102DE000DF9380913202807FA9F480912F028823A3
:102DF00089F080916402D091330260912D0270912C
:102E00002E02A0913002B0913102C62FC72316E0E6
:102E1000D81304C0DF91CF911F91089590E01097CF
:102E200011F0CF3F19F401968770F2CF189F9001EF
:102E3000199F300D1124F901EC5CFD4F41814713BE
:102E4000F2CF40814613EFCF42814111ECCF438155
:102E500054814A1B5B0B483C510528F78091320294
:102E60008F70806180933202F901E75CFD4F8081B1
:102E70008F70806180838DE292E00E949D10DF91CF
:102E8000CF911F910C94E704AF92BF92CF92DF9243
:102E9000EF92FF920F931F93CF93DF93CDB7DEB7DF
:102EA00061970FB6F894DEBF0FBECDBF8C0185E0F1
:102EB000F801DE011D9601900D928A95E1F7F80167
:102EC00080819181E2802DE2A22E22E0B22E6091DB
:102ED0003002709131026115710509F43EC13091E3
:102EE0002D0240912E02232F24232F3F09F435C1B8
:102EF000C380D480F0902F02F601E61BF70BFF2071
:102F000009F4FBC020913202522F507FE83CF105BA
:102F100008F0BBC0511178C0FE2C491321C03813F2
:102F20001FC0E1101DC02F70206120933202C50127
:102F30000E949D1080913202F80185838F2D619649
:102F40000FB6F894DEBF0FBECDBFDF91CF911F91BA
:102F50000F91FF90EF90DF90CF90BF90AF900895CA
:102F6000CD2829F0282F29232F3F09F022C120E066
:102F7000F22FF170DF2E20FF3DC0209164024091BE
:102F8000330256E0241315C08D879E878D859E855C
:102F90000E942808292F22952F702230F8F0243023
:102FA00020F59F70F9F0F8019581907FD9F4D12C2C
:102FB0001FC030E0529FF001539FF00D1124EC5CD4
:102FC000FD4F6181961306C06081861303C0628144
:102FD000E61210C02F5F3F4F2770D4CF9F7011F0C3
:102FE000882329F3805E883010F3C8010E949D1069
:102FF000FD2CA4CFEE2009F4A1CF80913202816094
:1030000080933202F12C9ACF491312C0381310C0AA
:10301000E1100EC0F8012583C8010E949D1086E0D2
:10302000F801ADE2B2E001900D928A95E1F786CF0A
:103030008D879E878D859E850E943208882309F1A1
:10304000EE20F9F080913202803270F020912D0252
:1030500030912E0238872F831986DB86CA868C87AB
:10306000CE0107960E949D1086E0F801ADE2B2E025
:1030700001900D928A95E1F70E94EE16FF24F394D9
:103080005DCFC8010E949D10F9CF51110AC08DE299
:1030900092E00E949D1086E0F50111928A95E9F771
:1030A000B1CF49130FC038130DC0E1100BC0F801A8
:1030B0002583C8010E949D1086E0F50111928A9532
:1030C000E9F73CCF8D879E878D859E850E943208CB
:1030D0008823B9F2EE20A9F280913202803220F2E8
:1030E00020912D0230912E023A8329831B82DD82AA
:1030F000CC828E83CE010196B5CFE83CF105E0F697
:10310000FE2CEE2009F4BDCF491316C0381314C0AD
:103110008091320280FD83CF982F907F09F47FCF7A
:10312000F8018583903F09F477CF982F907F905FC7
:103130008F70892B858370CF8D879E878D859E8527
:103140000E943208811190CF809132028160809379
:103150003202C8010E949D10F1CEEE2009F491CFF9
:103160008D879E878D859E850E943208F82E882344
:1031700009F487CF86E0F801ADE2B2E001900D924C
:103180008A95E1F780912D0290912E020E942808E5
:1031900092959F70963051F4863F41F080912C02B9
:1031A00091E0892780932C0290932B020E94EE16C7
:1031B000C5CE21E02E25DCCE1F93CF93DF93CDB774
:1031C000DEB767970FB6F894DEBF0FBECDBF6D8B2D
:1031D0007E8B8F8B8E899F89892BE1F0852F8423AD
:1031E0008F3F09F098C05FEF4FEF14C030912C0271
:1031F000332309F44EC0E42FF0E036E0539FE00D96
:10320000F11D1124EE0FFF1FED5EFE4F4081518135
:10321000822B8C931A8A198A4B8B5C8B85E0FE017A
:103220007396DE011D9601900D928A95E1F786E076
:10323000FE013D96DE01179601900D928A95E1F709
:10324000CE0107960E944417811112C086E0FE014C
:103250003796DE01119601900D928A95E1F78A85E5
:103260009B85892B29F08F81988589238F3FC9F50C
:1032700016E08091640290913302891320C0679612
:103280000FB6F894DEBF0FBECDBFDF91CF911F9177
:10329000089580958223BDCF96E0929FD001939FA1
:1032A000B00D1124AC5CBD4FFE01319601900D9222
:1032B0009A95E1F7809333020E94E704D9CF819F6A
:1032C000C00111248C5C9D4F0E9444178823B9F2E1
:1032D0008091640290E00196877099278093640240
:1032E000C8CF2091330230E0C90101968770992739
:1032F000409164024817190679F60E94EF0A10926D
:1033000033021092640286E0EDE2F2E0DF011D92EA
:103310008A95E9F7ADCF81E090E0042E01C0880FD7
:103320000A94EAF7A52FB0E0A75EBD4F2C913D8926
:1033300031115CCF322F38235BCF8F929F92BF9297
:10334000CF92DF92EF92FF920F931F93CF93DF9371
:103350008091060190910701892B91F080911102D3
:103360008F5F8093110281110BC00E941D0E90E0AF
:103370009093070180930601892B11F40E94010AA2
:1033800027EB822E22E0922E740100E010E097E0FD
:10339000C92EC00E802F0E94C90D8C2D0E94C90D10
:1033A000802F0E94940EE70199917E01D12C8917FC
:1033B00029F0FE0131978083DD24D3948C2D0E9467
:1033C000940EF7019681891709F47BC0868381E00A
:1033D0008D29182B0E9446090F5F0730C1F60E9405
:1033E000251060910D0270910E0290930E02809351
:1033F0000D0220910C0230E0261B370B820F931F29
:103400006BEF70E00E94061DE82E392F082F809385
:103410000C02F0901002FF2009F45FC0109210021D
:10342000E091AD02F091AE02AF01425F5F4F20E04C
:103430008BEFB82E6BEF70E0A191AB3F99F0CA2EE5
:10344000D12C8E2D932F0A17F0F18C199D09092E7E
:10345000000CAA0BBB0B4E97A105B105D0F1DF0103
:103460001197BC924E175F0739F720931002111184
:1034700002C0211134C010920F02A091AD02B09190
:10348000AE0290911002EAECF2E048ED52E080E0EA
:103490003191E40129914E01321751F03C913B3FAB
:1034A000D1F40C93BF0161507109EB01288391E0C5
:1034B00011964E175F0761F79093100280930F02E9
:1034C00012C080E085CFDB01AC19BD098A0F9B1FBC
:1034D000BECF2F2DC7CF81E0EBCF1111CCCF809184
:1034E0000F028111C8CF812FDF91CF911F910F91D2
:1034F000FF90EF90DF90CF90BF909F908F900895B6
:10350000CDB7DEB72A970FB6F894DEBF0FBECDBF9A
:1035100084B7877F84BF0FB6F894A8958091600028
:10352000886180936000109260000FBE80E890E098
:103530000FB6F89480936100909361000FBE85B739
:10354000806885BF85B7806885BF0E9458020E9449
:1035500023038091E20084608093E200789480915C
:103560000D038823A1F01091E9001F709091EC00E9
:10357000892F817090FD80E8182B1092E9008091CE
:10358000E80083FD0E94040B1F701093E90082E0A5
:1035900084BD93E095BD9AEF97BD80936E000E9425
:1035A0001D0E90E090930701809306010E9446094A
:1035B0000E945509A7EBB2E0EAECF2E011921D92ED
:1035C00022E0E83DF207D1F78EE090E00E94681D0E
:1035D0008093AD029093AE02FC010E962BEF2193E7
:1035E000E817F907E1F790E080E00E942E1D8F3E7A
:1035F0009E4F11F00E947B0A8CE090E00E94201DFB
:1036000090E0B0E0A0E08093AF029093B002A0936E
:10361000B102B093B20289EA8093800089E080937E
:10362000810024982C983F988AB18F7C8AB96E9833
:10363000479A8BB180638BB9769A8FE090E00E94B5
:10364000281D6093B3027093B4028093B5029093E7
:10365000B60267708FEF689FB0011124759567956A
:1036600075956795772770938900609388007093AC
:103670008B0060938A0070938D0060938C000E9491
:10368000010A90E080E00E942E1D8F3E9E4F11F0B7
:103690000E947B0A82E090E00E94201D8093D90264
:1036A0000E945C099093C6028093C50283E090E07B
:1036B0000E94201D682F70E090E080E00E94550578
:1036C00088E091E09093C8028093C702EE24EA94C8
:1036D00080E1A82E92E1B92E28E1C22ED12C30E44F
:1036E000932E80910D038530D1F10E949D19EAED52
:1036F000F2E0AAECB2E010E000E0302F8D912191D1
:10370000281709F479C090E0FF24F3942827422F6A
:103710004F2109F46CC099833A838F2191E009F419
:1037200090E09B830E9425108160782F9D838C837D
:1037300049815A816B818D810E94DC18F801E65223
:10374000FD4F8081F826F0820E94FF059091D802FB
:10375000891739F20E94FF058093D802C2CF809169
:103760000D03843009F11092C9020FB6F894A895A0
:10377000C09260000FBE9092600083B7817F84602A
:1037800083BF83B7816083BF7894889583B78E7F2A
:1037900083BF0FB6F894A8958091600088618093EC
:1037A0006000109260000FBE80910C03882309F422
:1037B00098CF0E941D0E90E0909307018093060120
:1037C0000E9446090E945509EAECF2E0119282E05B
:1037D000E83DF807D9F70E949D19EAECF2E08191E3
:1037E000811120C022E0E83DF207C9F77ACF9F5F40
:1037F000FF0C963009F08BCF0F5F1F4F0E30110575
:1038000009F07BCFEE82EF8218860E94251081603E
:10381000782F9A8789874E815F8168858A850E9483
:10382000DC1892CFA9BCB9BC09B400FEFDCF8091D1
:10383000D8008F7D8093D8008091E00082608093D3
:10384000E0008091E00081FDFCCF4BCF1F921FB6BE
:103850001F9211248F939F93AF93BF938091C902BE
:10386000811113C08091A9029091AA02A091AB028C
:10387000B091AC024196A11DB11D8093A902909315
:10388000AA02A093AB02B093AC02BF91AF919F91FB
:103890008F911F901FBE1F9018951092B9008CE059
:1038A0008093B8000895EF92FF920F931F93CF93E8
:1038B000DF93182FEB011092BC0084EA8093BC00C8
:1038C0000E9425107C018091BC0087FF27C0809159
:1038D000B900887F883029F08091B900887F8031D5
:1038E000D9F51093BB0084E88093BC000E9425109A
:1038F0008C018091BC0087FF24C02091B900287FF3
:1039000090E080E02831B1F081E090E0203411F4C3
:1039100090E080E09195819591090CC0CF3FDC0744
:1039200091F20E9425108E199F098C179D0758F25D
:103930008EEF9FEFDF91CF911F910F91FF90EF904E
:103940000895CF3FDC07A9F20E942510801B910B40
:103950008C179D0770F2ECCF8FEF9FEFEBCF0F939B
:103960001F93CF93DF93EB018093BB0084E8809398
:10397000BC000E9425108C018091BC0087FF11C003
:103980002091B900287F81E090E0283211F490E086
:1039900080E0919581959109DF91CF911F910F91D1
:1039A0000895CF3FDC0741F30E942510801B910B47
:1039B0008C179D0708F38EEF9FEFEECF0F931F93A9
:1039C000CF93DF93EC0184E88093BC000E94251024
:1039D0008C018091BC0087FF08C08091BB0090E003
:1039E000DF91CF911F910F910895CF3FDC0789F3AD
:1039F0000E942510801B910B8C179D0750F38EEFB2
:103A00009FEFEECF84E98093BC000895AA1BBB1BF7
:103A100051E107C0AA1FBB1FA617B70710F0A61BCE
:103A2000B70B881F991F5A95A9F780959095BC01EF
:103A3000CD010895EE0FFF1F0590F491E02D09943C
:103A4000F999FECF92BD81BDF89A992780B5089566
:103A5000A6E1B0E044E050E00C945A1DA8E1B0E0CB
:103A600042E050E00C945A1D262FF999FECF92BDEA
:103A700081BDF89A019700B4021639F01FBA20BD33
:103A80000FB6F894FA9AF99A0FBE08950396272F65
:103A90000E94351D0E94341D252F0E94351D242FA4
:103AA0000C94351D0196272F0E94351D0C94341D52
:103AB000DC01CB01FC01F999FECF06C0F2BDE1BDEE
:103AC000F89A319600B40D9241505040B8F70895DD
:103AD0000F931F93CF93DF938230910510F482E010
:103AE00090E0E0911903F0911A0330E020E0B0E09B
:103AF000A0E0309799F42115310509F447C0281B3F
:103B0000390B24303105C0F58A819B81611571051F
:103B100071F1FB0193838283FE0111C040815181C9
:103B20000281138148175907F8F04817590799F48B
:103B3000109761F012960C93129713961C9332967D
:103B4000CF01DF91CF911F910F9108950093190339
:103B500010931A03F4CF2115310519F042175307BA
:103B600018F49A01BD01EF01DF01F801C2CF909373
:103B70001A0380931903D0CFFE01E20FF31F819344
:103B800091932250310939832883DACF209117038A
:103B900030911803232B41F420910201309103014D
:103BA00030931803209317032091000130910101F5
:103BB0002115310541F42DB73EB7409104015091D4
:103BC0000501241B350B4091170350911803421730
:103BD000530708F0B5CF241B350B2817390708F415
:103BE000AFCFBC016E5F7F4F2617370708F4A8CF11
:103BF000640F751F7093180360931703FA01819384
:103C000091939ECFCF93DF930097E9F0FC01329719
:103C100013821282C0911903D0911A03DE0130E0A1
:103C200020E02097A1F420813181820F931F209101
:103C30001703309118032817390709F067C0F0936C
:103C40001803E0931703DF91CF910895DA01AE17BF
:103C5000BF0708F040C012964D915C9113979D01EB
:103C60004115510599F7D9011396FC93EE931297DC
:103C70004D915D91A40FB51FEA17FB0779F4808180
:103C800091810296840F951FD90111969C938E9372
:103C90008281938113969C938E931297B0E0A0E05B
:103CA0008A819B810097B9F5FE0181919191E80F7E
:103CB000F91F80911703909118038E179F0719F62B
:103CC000109761F510921A0310921903D0931803FC
:103CD000C0931703B8CFB383A28340815181840F6F
:103CE000951FA817B90771F44E5F5F4F8D919C9196
:103CF0001197480F591F5183408312968D919C91C3
:103D0000938382832115310509F0ADCFF0931A0317
:103D1000E093190398CFDE01EC01C2CF13961C92F9
:103D20001E921297D3CFF894FFCF410841084A085A
:103D30004A084C084A084A084A08410841085108FC
:103D40004A084A085108C508D108D608CF08D4083F
:103D5000DB08D908E70B0F0CB10D0F0CB10D420CAD
:103D6000630CB10D6C0D790DD813D8136414641461
:103D7000B8140E1448160E14D414AC15BD15BD1588
:0E3D800052167F165C165F16661662166B16DC
:103D8E0000001B0320002000E303AA09E203A6099A
:103D9E009D0901000D010D020D030D040D050D0011
:103DAE000C010C020C030C040C050C000B010B0295
:103DBE000B030B040B050B000A010A020A030A048B
:103DCE000A050A0009010902090309040905090087
:103DDE000801080208030804080508000701070285
:103DEE00070307040705070006010602060306047B
:103DFE000605060005010502050305040505050077
:103E0E000401040204030404040504000301030274
:103E1E00030303040305030002010202020302046A
:103E2E000205020001010102010301040105010066
:103E3E000001000200030004000500818283E200FD
:103E4E00E900EA00B500B600B700CD008301CC0052
:103E5E008A019201940121022302240225022602E4
:0C3E6E0027022A02B300B4006F007000AD
:00000001FF
