:100000000C9463020C9480020C9480020C94800285
:100010000C9480020C9480020C9480020C94800258
:100020000C9480020C9480020C946A110C9426119A
:100030000C94DA200C9480020C9480020C948002C0
:100040000C9480020C9480020C9480020C94800228
:100050000C9480020C94790D0C9480020C94800214
:100060000C9480020C9480020C9480020C94800208
:100070000C9480020C9480020C9480020C948002F8
:100080000C9480020C9480020C9480020C948002E8
:100090000C9480020C9480020C9480020C948002D8
:1000A0000C9480020C9480020C94800235002B008A
:1000B0000100D75CE00000001E00140004001D00D9
:1000C000340003581F001A0016001B0000072A0006
:1000D0002000080007000600E20029612100150049
:1000E00009411900E3004A00220017000A00050038
:1000F000000002580100035300002F0000000358C5
:10010000230034000000300000002F0024001C00F9
:100110000B00110000003000250018000D00100039
:100120002C00520026000C000E00360050002C005F
:10013000270012000F003700510028002D00130087
:100140003300380052000100310001000100D85C8A
:100150004F00000035002B00E000E100010000002E
:100160003A0014000400E100E00001003B001A0026
:1001700016001D00E20001003C00080007001B0003
:10018000E30001003D001500010006000100010030
:100190003E0017000A001900000001003F000100A6
:1001A00000000500000001004000340200000100D2
:1001B0000000010041005700260234000000010049
:1001C00042002E0034020100E3000100430020023F
:1001D00027023600E2002C002D022F002F023700EC
:1001E000010028002E02300030023800010001001A
:1001F0002E0031003400E1000100000029002B0036
:100200003900E100010000000100010001000100CF
:10021000E00001000100010001000100E200010016
:100220000100010001000100E3002C0001000100B9
:10023000010001002C00010001000100010001008B
:1002400000000100010001000000010000000100A9
:100250000100010000000100000001000100F400A5
:10026000F200F400000001000100F500F100F500CB
:100270000100010001000100F00001000100010087
:1002800001000100F3000100010001000100010074
:100290000100010001000100010001000100010056
:1002A0000100000029002B003900E10001000000DE
:1002B000010014000400E100E000010001001A0048
:1002C00016001D00E20028000100080007001B00C6
:1002D000000F2C0001001500090006002C00010091
:1002E000010017000A0019000000010001000100D0
:1002F00000000500000001000100010000000100F5
:100300000000AE0001000100010001000000AB0090
:1003100001000100010001000100A900010001002D
:100320000100010063002C00010001000100010038
:100330000100010001000100010001000100AA000C
:100340000100010001000100010000000501090297
:10035000A10185020901A10005091901290515005E
:10036000250195057501810295017503810105013E
:10037000093009311581257F9502750881060938F4
:100380001581257F950175088106050C0A3802152F
:1003900081257F950175088106C0C005010980A1EE
:1003A0000185031A81002A830016010026030095A7
:1003B0000175108100C0050C0901A10185041A0115
:1003C000002A9C02160100269C02950175108100EE
:1003D000C005010906A1018505050719E029E715F2
:1003E0000025019508750181020507190029EF15FF
:1003F00000250195F075018102050819012905956F
:100400000575019102950175039101C00501090669
:10041000A101050719E029E71500250195087501D7
:1004200081029501750881010507190029FF150052
:1004300026FF009506750881000508190129059514
:100440000575019102950175039101C009023B00F8
:10045000020100A0FA0904000001030101000921C2
:10046000110100012240000705810308000A090468
:100470000100010300000009211101000122C00058
:100480000705820320000A1201100100000008ED98
:10049000FE071301000102030104033000000016EF
:1004A000034500720067006F0064006F0078002051
:1004B0000045005A00000008035A005300410000A4
:1004C00000040309040011241FBECFEFDAE0DEBFF1
:1004D000CDBF11E0A0E0B1E0E0E1F7E402C005909B
:1004E0000D92AC3BB107D9F722E0ACEBB1E001C013
:1004F0001D92A43FB207E1F70E949D1E0C945B235E
:100500000C940000E8EDF0E080818E7F80831092F3
:10051000E2001092DA001092E100A0EEB0E08C91BF
:1005200081608C9380818F77808319BCA7EDB0E0C8
:100530008C918E7F8C9380818F7E80831092C102FC
:1005400008952091E4003091E50095E6A9012091FD
:10055000EC00822F817020FF06C08091E80080FFB0
:1005600006C080E008952091E80022FD1AC0809125
:10057000E602882389F0853089F08091EB0085FDC3
:100580000FC02091E4003091E50042175307F9F2C3
:100590009150E1F684E0089582E0089583E00895A3
:1005A00081E00895EF92FF920F931F93CF937C0108
:1005B0008B010E94A102C82F811117C08091E80011
:1005C00085FD0BC08091E8008E778093E8000E9443
:1005D000A102882399F3C82F08C0F70181917F01F8
:1005E0008093F1000150110949F78C2FCF911F9191
:1005F0000F91FF90EF9008958091E80287FF13C05C
:100600008091E80082FF06C08091E8008B7780939C
:10061000E80004C08091E6028111F2CF0895809134
:10062000E6028823D9F38091E80080FFF8CF80911B
:10063000E8008E77ECCF982F9093E900242F762F47
:1006400050E0891731F07091EC002091ED0050914D
:10065000F00021FD07C09F5F973071F78093E9009C
:1006600081E008953091EB003E7F3093EB003091B4
:10067000ED003D7F3093ED003091EB003160309321
:10068000EB007093EC002093ED005093F00020916C
:10069000EE0027FDE0CF80E00895CF92DF92EF9249
:1006A000FF920F931F93CF93DF93C8EDD0E0888123
:1006B0008F7E8883E7EDF0E080818160808384E035
:1006C00082BF81E08093C10288818E7F888302EEA1
:1006D00010E0F80110821092DA0081EEC82ED12CC1
:1006E000F601108288818F7788838881806888836B
:1006F00088818F7D888319BC1092E6021092E702F0
:100700001092E5021092E40290EEE92EF12CF7012E
:1007100080818B7F808388818160888342E060E074
:1007200080E00E941B03F60180818E7F8083F801A8
:10073000808181608083808188608083F7018081EF
:100740008E7F8083888180618883DF91CF911F9124
:100750000F91FF90EF90DF90CF900895FC01809172
:10076000EE029091EF0286179707A0F061157105D0
:1007700029F49091E8009E779093E80090E061154D
:10078000710551F4911108C08091E80082FF34C0D6
:1007900080E00895BC01F2CF8091E6028823C1F188
:1007A0008530C1F18091E80083FD30C08091E80080
:1007B00082FDEACF8091E80080FFE1CF8091F300D5
:1007C0002091F200382F6115710519F0283031059C
:1007D00058F091E02830310509F090E02091E800D0
:1007E0002E772093E800CBCF81918093F100615068
:1007F00071092F5F3F4FE7CF8091E602882341F0D8
:10080000853041F08091E80083FFBECF81E00895FC
:1008100082E0089583E008958091C002811107C0AD
:100820008091E602843011F482E0089581E0089519
:100830008091C30208959091A902803F41F4809174
:10084000AA0287FD1092AA02992371F00895813FB0
:1008500029F48091AA021816ACF3F6CF823F81F4F6
:1008600097FFF2CF1092A9028091AA029091AB0259
:10087000892B9091AC02892B49F71092AD02089513
:10088000833F19F4191674F3DFCF893F39F480914F
:10089000AB021816CCF61092AB02D6CF8A3F29F4E1
:1008A0008091AB0287FFD0CFF6CF8B3F39F4809198
:1008B000AC0287FFC9CF1092AC02C6CF8C3F29F49F
:1008C0008091AC021816BCF3BFCF843F31F4809105
:1008D000A8028E7F8093A802B7CF853F21F4809134
:1008E000A8028D7FF7CF863F21F48091A8028B7FED
:1008F000F1CF873F21F48091A802877FEBCF883F1B
:1009000021F48091A8028F7EE5CF8D3F31F4809154
:100910007B028E7F80937B0297CF8E3F21F4809164
:100920007B028D7FF7CF8F3F09F08ECF80917B02C6
:100930008B7FF0CF80917B0280FD16C081FD16C0B9
:1009400082FD16C08091AD028823A1F0883280F428
:1009500028E0829FC001112468E270E00E94CE214D
:10096000862F672B39F0089582E0089584E008957A
:1009700088E0089581E0089580917B0280FD16C093
:1009800081FD16C082FD18C08091AD02882391F0D0
:100990008C3390F423E2829FC00111246CE370E059
:1009A0000E94CE21862F672B49F0089588E0089594
:1009B00081E1089585E0089583E2089581E0089536
:1009C000803F31F40E94BC0481958093AA0208956F
:1009D000813F19F40E94BC04F8CF823F31F40E9499
:1009E000BC0481958093A9020895833F19F40E9465
:1009F000BC04F8CF893F29F40E949A048093AB028B
:100A000008958A3F21F40E949A048195F7CF8B3F85
:100A100031F40E949A0481958093AC0208958C3F32
:100A200019F40E949A04F8CF843F31F48091A8020F
:100A300081608093A8020895853F21F48091A802E7
:100A40008260F7CF863F21F48091A8028460F1CFC5
:100A5000873F21F48091A8028860EBCF883F21F482
:100A60008091A8028061E5CF8D3F31F480917B02B7
:100A7000816080937B0208958E3F21F480917B02F8
:100A80008260F7CF8F3FB9F780917B028460F1CF0E
:100A9000CF92DF92EF92FF920F931F932FB7F894AC
:100AA00040917702509178026091790270917A02B8
:100AB0002FBF6A017B01EE24FF248C0130E020E08F
:100AC000C016D106E206F30650F0481B590BCA01C6
:100AD0001F910F91FF90EF90DF90CF9008954150BC
:100AE0005109F3CF80917202811110927202089520
:100AF0008091710290917002892B90916F02892BE5
:100B00008093BC01909172029923A1F0892B80936C
:100B1000BC0180911201882341F18091940287FFEA
:100B200024C08EE1EEEBF1E090E0815000F59111F0
:100B30000E947205E0919602F09197023097E1F0E1
:100B400080911201882359F08091940287FF07C099
:100B50008091BC018093BD0185E08093BC0102803F
:100B6000F381E02D8CEB91E0099486E0DBCF2191BD
:100B70002223D9F29F5FD9CF089590911201992332
:100B8000D1F09091940297FF16C0E82FE695E69574
:100B9000E695EE31E0F4F0E0E454FE4F282F2770A4
:100BA00081E090E001C0880F2A95EAF78095928154
:100BB000892382830895EEEBF1E09191891303C0BC
:100BC000DF0111971C9291E0E43CF907B1F7089519
:100BD000909112019923C1F09091940297FF14C053
:100BE000E82FE695E695E695EE31F8F4F0E0E4546A
:100BF000FE4F877021E030E001C0220F8A95EAF7AE
:100C00008281822B82830895AEEBB1E0EFEF90E01A
:100C10002D91821751F0EF3F19F4211101C0E92FF6
:100C20009F5F9630A9F7EF3F09F408950E2E000C50
:100C3000FF0BE454FE4FE6CFE92FEE0FE90FEE0F66
:100C40008E0F982F977086958695869525E0829FC2
:100C5000F0011124ED5CFD4F50E040E080E0219177
:100C600030E0092E02C0369527950A94E2F72170EC
:100C70003327042E01C0220F0A94EAF7822B4F5F1C
:100C80005F4F4530510559F70895E92FEE0FE90FF1
:100C9000EE0F8E0F982F977041E001C0440F9A9588
:100CA000EAF786958695869595E0899FF00111244F
:100CB000ED5CFD4F30E020E070E05191DF011197D5
:100CC000CB01022E02C0969587950A94E2F78170B7
:100CD00081958527842385278C932F5F3F4F25306F
:100CE000310559F7089580913202909101029813CD
:100CF00001C008958F5F8770FACF882341F08095F7
:100D0000909170028923809370020C947805089565
:100D1000882339F090917002982B909370020C9474
:100D200078050895882341F0809590917102892378
:100D3000809371020C9478050895882339F090917E
:100D40007102982B909371020C947805089520916C
:100D5000E4013091E5012817390771F09093E5011E
:100D60008093E401E0919602F0919702309721F090
:100D70000084F185E02D099408952091E2013091DD
:100D8000E3012817390771F09093E3018093E201A2
:100D9000E0919602F0919702309721F00680F7815A
:100DA000E02D09940895E0919602F0919702309712
:100DB00021F00190F081E02D099480E00895909158
:100DC000940292FF06C0282F28712830F9F4877FFB
:100DD000846093FF06C0282F28712831F1F4877EA4
:100DE00084612091950220FF06C0382F3871383079
:100DF000D9F4877F816021FF06C0282F2871283110
:100E0000D1F4877E816194FD877E0895282F247117
:100E10002430F9F68B7F8860DCCF282F24712431B1
:100E200001F78B7E8861DDCF382F3171313019F7B2
:100E30008E7F8860E0CF282F2171213121F78E7EAF
:100E40008861E1CFCF93DF93972F70E026E0929FE8
:100E5000600D711D1124FB0134E5839FE00DF11D30
:100E60001124EE0FFF1FE455FF4FC591D491CE0121
:100E7000C238D105B9F1E8F5C133D10509F499C0FB
:100E800050F5C932D10509F48DC0CA32D10509F433
:100E900097C0C11540E5D40708F0C3C0C11550E4A0
:100EA000D50708F0C2C1C83ED10508F0A2C0C13EB6
:100EB000D10568F5C83AD10508F089C0C53AD10511
:100EC00008F00FC1C130D10511F1209709F443C0DA
:100ED0002497E8F440C0C533D10509F45CC0C93398
:100EE000D105B9F620919402237089F080EE90E04C
:100EF0000EC0C33ED10591F168F4C03ED105F9F0B2
:100F0000C23ED10531F62091940222FD20C0DF912E
:100F1000CF910895C63ED10561F1C73ED10581F15B
:100F2000C43ED10509F0B5CF2091950221FFEFCF46
:100F30008091940284FD0FC087EE90E0E8CF20916D
:100F4000940220FDC2C13091950230FFE0CF83EEC4
:100F500090E024FFDCCF90E080E0D9CF2091940294
:100F600022FDB6C13091950230FDC0CF24FFCFCF16
:100F7000F2CF2091940223FFCACF24FDECCFDCCF27
:100F80002091940223FDA7C13091950231FFEECF4D
:100F900084EE90E0BCCF2091940225FFB8CF89E287
:100FA00090E0B5CF2091940225FFB1CF85E390E08A
:100FB000AECF2091940226FFAACF8AE290E0A7CF7D
:100FC0002091940226FFA3CF81E390E0A0CFCF3BF6
:100FD000D10508F495C0FE01E05CF109E032F105AD
:100FE00008F0B9CFEE0FFF1FE455FF4F85919491A4
:100FF0008ECFC11520E2D20760F4C11531E0D307CE
:1010000008F085CFCE019065C03FD10508F07FCFB5
:10101000A2CFC11540E3D40708F0FFC0FE01FF7066
:10102000E1CFC11555E5D50748F5C11584E5D807C9
:1010300008F02CC1C11592E5D90750F4C11521E57E
:10104000D20708F4F6C09C2F8827816F906A5FCF83
:101050009C2F96959695AE0143705527C115D345A3
:1010600008F005C121E030E002C0220F331F4A958D
:10107000E2F750E2959FC0011124F5C0C1154AE581
:10108000D407A0F4C11559E5D50708F00EC1C11564
:1010900086E5D80708F4FFC0C11598E5D90708F41C
:1010A0005ACF9C2F8827806F906A31CFC1152BE5CE
:1010B000D20708F450CFCE01C1153CE5D30708F4A0
:1010C00001C190568115904208F045CF8D2F8F7148
:1010D0000E94DF0690E0982F882788279F718C2B2D
:1010E000E2C081E890E4C53AD10509F410CF82E866
:1010F00090E4C63AD10509F40ACF83E890E407CF1B
:1011000082EE94E4C83AD10509F401CF89EE94E463
:10111000C93AD10509F4FBCE8AEE94E4CA3AD10566
:1011200009F4F5CE85EB94E4CB3AD10509F4EFCE82
:1011300086EB94E4CC3AD10509F4E9CE83EB94E450
:10114000CB3BD10509F4E3CE84EB94E4CC3BD10551
:1011500009F4DDCE87EB94E4CD3AD10509F4D7CE7E
:101160008CEC94E4C03BD10509F4D1CE8DEC94E431
:10117000CE3AD10509F4CBCE83E895E4CF3AD10538
:1011800009F4C5CE8AE895E4C13BD10509F4BFCE88
:1011900082E995E4C23BD10509F4B9CE84E995E42E
:1011A000C33BD10509F4B3CE81E296E4C43BD1053B
:1011B00009F4ADCE83E296E4C53BD10509F4A7CE90
:1011C00084E296E4C63BD10509F4A1CE85E296E41B
:1011D000C73BD10509F49BCE86E296E4C83BD10516
:1011E00009F495CE87E296E4C93BD10509F48FCE88
:1011F0008FE694E4CD3BD10509F489CE80E794E4F1
:10120000CE3BD10509F483CE80E094E4CA3BD105FE
:1012100009F07DCE8AE296E47ACECE019927D3FFFB
:1012200002C0986C74CE906C72CECE019F70906AA2
:101230006ECE9E01E4E036952795EA95E1F723709E
:101240008C2F86958695837050E2859FC00111246E
:10125000AC01522B9A01C37081E090E002C0880F6C
:10126000991FCA95E2F7822B932B9C6850CE21E000
:1012700030E002C0220F331F4A95E2F740E2949F0C
:10128000C0011124822B932B9A6841CE9C2F882772
:10129000846F906A3CCE8C2F0E94DF0690E0982FDE
:1012A000882788279F71906232CE8C2F8F700E9482
:1012B000DF0634E0D695C7953A95E1F7CF709C2FBD
:1012C000906925CE9927906622CE89E390E01FCEC3
:1012D00082EE90E01CCE86EE90E019CEBF92CF92C7
:1012E000DF92EF92FF920F931F93CF93DF938C01C6
:1012F000C0906A02D0906B02E0906C02F0906D0298
:101300008091730290917402A0917502B09176025F
:10131000C82AD92AEA2AFB2ACFE1D0E0BC2ED7017D
:10132000C6010C2E04C0B695A795979587950A948B
:10133000D2F780FD0EC0219788F7B12C8B2DDF915D
:10134000CF911F910F91FF90EF90DF90CF90BF90C2
:101350000895B8018C2F0E942207019761F3EECF08
:10136000CF93DF93EC010E946E09BE01DF91CF9114
:101370000C9422070E94B009292F2F7092959F701C
:1013800092509E3078F4E92FF0E0E35AFC4D0C9433
:10139000E221803F19F020F4883E20F481E0089596
:1013A000843FE1F380E00895883EC0F3813FD1F7A8
:1013B000F5CF822F869586958695089527982F9844
:1013C000089526982E98089525982D980895569852
:1013D0005E980895279A2F9A0895269A2E9A08952E
:1013E000259A2D9A0895CF92DF92EF92FF92CF9394
:1013F0006B017C01C701AA27BB27C0E10097A105AB
:10140000B10519F4D701CB01C0E0492F5A2F6B2F3A
:101410007727411551056105710519F0C85FDB019A
:10142000CA01AC01BD01E4E07695679557954795F3
:10143000EA95D1F7411551056105710519F0CC5FA9
:10144000DB01CA01AC01BD0132E076956795579585
:1014500047953A95D1F7411551056105710519F088
:10146000CE5FDB01CA01B695A79597958795892B25
:101470008A2B8B2B09F0CF5F0E94E7090E94E409B9
:101480000E94E1090E94DE09C150C73040F4EC2FF0
:10149000F0E0E559FC4D0C94E2210E94F009C701EF
:1014A000B601CF91FF90EF90DF90CF9008950E940A
:1014B000F0090E94ED09F3CF0E94F0090E94EA09A9
:1014C000EECF0E94F0090E94ED09F8CF84B1807F31
:1014D00084B985B1807F85B98AB1837F8AB98BB1A0
:1014E000837F8BB93E984698089580B38C7080BBFB
:1014F00081B3836F81BB0895CF9384E090E00E9415
:10150000E821C82F81E290E00E94E821982F8C2FDB
:10151000CF9108950F931F93CF93DF9300D00F9235
:10152000CDB7DEB78C010E940C04823011F08430FC
:1015300021F584E089831B830A8382E08093E9009C
:101540008FEF9091E800815095FD06C095ED9A953A
:10155000F1F700008111F5CF8091E80085FF0DC003
:1015600050E040E063E070E0CE0101960E94D202BC
:101570008091E8008E778093E8000F900F900F9095
:10158000DF91CF911F910F910895CF93DF9300D0FA
:101590000F92CDB7DEB72091E602243031F523E07B
:1015A0002983805891099B838A8382E08093E90094
:1015B0008FEF9091E800815095FD06C095ED9A95CA
:1015C000F1F700008111F5CF8091E80085FF0DC093
:1015D00050E040E063E070E0CE0101960E94D2024C
:1015E0008091E8008E778093E8000F900F900F9025
:1015F000DF91CF910895CF93DF93EC010E940C040B
:10160000823011F08430F9F482E08093E9008FEFAA
:101610009091E800815095FD06C095ED9A95F1F7FF
:1016200000008111F5CF8091E80085FF0CC050E0EB
:1016300040E066E070E0CE010E94D2028091E800B6
:101640008E778093E800DF91CF910895CF93DF9359
:10165000EC010E940C04823011F08430B9F58091C5
:1016600012018823B1F18091940287FF32C060E2B9
:1016700082E08093E9008FEF9091E800815095FD22
:1016800006C095ED9A95F1F700008111F5CF809194
:10169000E80085FF1BC08091120170E050E040E03F
:1016A000811104C050E040E068E070E0CE010E948B
:1016B000D2028091E8008E778093E80080E2FE01FC
:1016C000A4ECB2E001900D928A95E1F7DF91CF9101
:1016D000089568E081E0CDCFEF92FF920F931F93C2
:1016E000CF93DF930E94E7090E94E4090E94E10979
:1016F0000E94DE0988E8E82EF12C8FEF90E0F701D8
:10170000918380830AE810E0F80191838083CCE81C
:10171000D0E0998388830E94F009FFEF20E782E000
:10172000F15020408040E1F700C000000E94ED0928
:101730009FEFE0E7F2E09150E040F040E1F700C0B9
:1017400000000E94EA092FEF80E792E021508040DC
:101750009040E1F700C000000E94E409EFEFF0E7DD
:1017600022E0E150F0402040E1F700C000000E947C
:10177000E1098FEF90E7E2E081509040E040E1F72F
:1017800000C000000E94DE09809182028770FFEF96
:101790008F9FC001112495958795959587959927D9
:1017A000F70191838083F8019183808399838883F3
:1017B0000E94E7090E94E4090E94E109DF91CF91AC
:1017C0001F910F91FF90EF900C94DE0960917E02C3
:1017D0008CE090E00C94FC216FEE7EEF90E080E0D6
:1017E0000E941A2260E082E090E00E94FC2160E00A
:1017F00083E090E00E94FC21109273021092740228
:10180000109275021092760260E084E090E00E94EF
:10181000FC2160E081E290E00E94FC2160E085E034
:1018200090E00E94FC2160E086E090E00E94FC21B4
:101830006FEF87E090E00E94FC2140E050E0BA01A9
:1018400088E090E00E940E2260E08DE090E00E942F
:10185000FC2140E050E0BA0188E190E00E940E22B5
:1018600060E087E190E00E94FC2140E050E0BA0196
:101870008CE190E00E940E2260E080E290E00E9405
:10188000FC21109282021092830210928402109224
:10189000850284E0806180938202409182025091AF
:1018A000830260918402709185028FE090E00E9433
:1018B0000E2240E050E0BA0183E190E00C940E2249
:1018C000CF93C82F873070F5809106019091070162
:1018D000892B89F564E670E080E40E9407219093EB
:1018E000070180930601892BD1F464E670E082E160
:1018F0000E9463219093070180930601892B79F45C
:1019000081E090E001C0880FCA95EAF764E670E0D4
:1019100080950E9463219093070180930601CF91E7
:101920000C94B6218A30B9F040F4883071F08930D7
:1019300079F0209A2898CF9108958C3091F070F02A
:101940008D30B9F73E9A4698F6CF219A2998F3CF71
:10195000229A2A98F0CF239A2B98EDCF529A5A9830
:10196000EACF539A5B98E7CF80E290E0909307012B
:10197000809306018091DF0181110EC00E94012138
:1019800081E08093DF012FEF83ED90E321508040D1
:101990009040E1F700C0000064E670E080E40E943F
:1019A00007219093070180930601892B09F04EC00F
:1019B00064E670E080E00E946321909307018093C9
:1019C0000601892B09F042C064E670E080E00E94C5
:1019D00063219093070180930601892BB9F564E692
:1019E00070E08FE30E9463219093070180930601CA
:1019F000892B61F50E94B62164E670E080E40E94C4
:101A000007219093070180930601892BF9F464E67E
:101A100070E08CE00E94632190930701809306019F
:101A2000892BA1F464E670E080E00E94632190932A
:101A3000070180930601892B49F464E670E08FE387
:101A40000E94632190930701809306010E94B621B2
:101A5000809106010895CF93873008F040C08091AF
:101A6000060190910701C0E0892B71F464E670E0F3
:101A700080E40E9407219093070180930601892B3F
:101A800031F0C0E00E94B6218C2FCF91089564E61A
:101A900070E083E10E946321909307018093060127
:101AA000892B79F764E670E081E40E940721909326
:101AB000070180930601892B21F784E690E00E94BC
:101AC000922197FF05C09093070180930601D9CF1B
:101AD000C82FC0951092070110920601D3CFCFB145
:101AE0008FB1869586958C73C3708C2BC82FC0954B
:101AF000CBCF78941F921FB61F9211248F939F9380
:101B0000AF93BF938091770290917802A091790270
:101B1000B0917A020196A11DB11D80937702909336
:101B20007802A0937902B0937A02BF91AF919F910E
:101B30008F911F901FBE1F9018952FB7F89480911A
:101B4000770290917802A0917902B0917A022FBF2A
:101B50000895E0919602F0919702309749F082E063
:101B60008093A7020480F581E02D87EA92E0099531
:101B70000E949D0D9093AF028093AE020895109243
:101B8000700210926F020E94780586E0E7EAF2E0A8
:101B9000DF011D928A95E9F71092AD0210927B0247
:101BA0000E94A90D90E080E00E94BD0690E080E0D8
:101BB0000C94A7060E94F30960936A0270936B026B
:101BC00080936C0290936D020C94BF0D0F931F9342
:101BD00041E050E060E070E004C0440F551F661F14
:101BE000771F8A95D2F7CB01BA01609570958095E1
:101BF000909500916A0210916B0220916C023091D5
:101C00006D0260237123822393231F910F910C9403
:101C1000DA0D90916E028095892380936E02282FB1
:101C2000277071F4282F082E000C330B921713061F
:101C300039F08595859585950E94E60D10926E0286
:101C400008950F931F9341E050E060E070E004C0FE
:101C5000440F551F661F771F8A95D2F780916A023D
:101C600090916B02A0916C02B0916D028A019B0170
:101C7000082B192B2A2B3B2BC901B8011F910F915F
:101C80000C94DA0D60937302709374028093750262
:101C9000909376020C94BF0D109271028091120104
:101CA000EEEBF1E0882359F08091940287FF07C0A2
:101CB0008EE1DF011D928A95E9F70C94BF0D86E055
:101CC000F8CF1F93CF93DF93CDB7DEB7AA970FB6A8
:101CD000F894DEBF0FBECDBF88EE92E02091F100F8
:101CE000FC012193CF01F2E0803F9F07B9F780917B
:101CF000E902833009F46FC0B8F4813009F446C0BA
:101D0000823009F4B0C08091E80083FF87C28091DF
:101D1000E8029091E9029A3008F080C2E92FF0E0E1
:101D2000EE58FC4D0C94E2218A3009F48BC08B30C4
:101D300009F46EC0893039F78091E802813219F7D1
:101D40008091EC029091ED020297E8F68091E80014
:101D5000877F8093E8008091E80082FF37C09091F0
:101D6000F3008091F200029729F48091F1008B7FBB
:101D7000813021F48091F1008093C3028091E800CA
:101D80008B778093E8000E94FC02BDCF8091E8022F
:101D9000813A09F0B8CF8091E800877F8093E8000E
:101DA0008091EC029091ED02892B61F460E284EC69
:101DB00092E070E00E94AE038091E8008B77809300
:101DC000E800A1CF60E090E080E0F3CF8091E602F0
:101DD0008111C1CF98CF8091E802813A09F093CF69
:101DE0008091EC029091ED02892B09F08CCF8091CB
:101DF000E800877F8093E8008091E80080FFFCCFB7
:101E0000809112018093F1008091E8008E77B9CF24
:101E10008091E802813209F076CF8091EC029091B6
:101E2000ED02892B09F06FCF8091E800877F8093C6
:101E3000E8000E94FC028091EA02809312010E9455
:101E40004C0E61CF8091E802813209F05CCF809125
:101E5000E800877F8093E8000E94FC028091EB02FB
:101E60008093C20250CF8091E802813A09F04BCFB3
:101E70008091E800877F8093E8008091E80080FFF0
:101E8000FCCF8091C202BECF803899F0823809F031
:101E9000C5C18091EC028F70873008F0BFC180937C
:101EA000E9008091EB0085FB882780F91092E9001A
:101EB00006C08091E4029091E502911182609091B8
:101EC000E800977F9093E8008093F1001092F10072
:101ED0008091E8008E779EC1882309F48CC18230FE
:101EE00009F09CC18091EA0281118FC18091EC02BE
:101EF0008F702FEF280F263008F090C18093E900F3
:101F00002091EB0020FF81C1933031F48091EB00F0
:101F100080628093EB0079C19091EB009061909387
:101F2000EB0021E030E001C0220F8A95EAF7209310
:101F3000EA001092EA008091EB008860EACF8111FC
:101F40006DC11091EA021F778091E3008078812BA8
:101F50008093E3008091E800877F8093E8000E94EF
:101F6000FC028091E80080FFFCCF8091E300806854
:101F70008093E30082E0111183E08093E6024EC17A
:101F80008058823008F04AC18091EA029091EB02B9
:101F90008C3D23E09207A1F583E08A838AE289835E
:101FA0004FB7F894DE01139620E03EE051E2E32FB4
:101FB000F0E050935700E49120FF03C0E295EF70EA
:101FC0003F5FEF708E2F90E0EA30C0F0C7968D93A0
:101FD0009D932F5F243159F74FBF8091E800877F91
:101FE0008093E8006AE270E0CE0101960E94AE03A1
:101FF0008091E8008B778093E80010C1C096E7CF0E
:102000004091EC025091ED02292F33272330310506
:1020100009F445C078F52130310509F47BC08BE324
:1020200090E0ECE4F4E02230310509F0F7C02091B3
:10203000E800277F2093E8002091EE023091EF0224
:102040008217930708F49C0140E02115310509F03F
:1020500070C041116EC08091E80082FDC9CF8091AF
:10206000E602882329F2853019F28091E80083FF87
:10207000F2CFBECF2132310509F440C02232310502
:1020800009F0CCC04115510509F44EC0413051054D
:1020900009F0C4C080EC90E0ECE4F3E0C8CF9927ED
:1020A00081309105D9F0009771F082309105F1F0FF
:1020B000039709F0B3C0E9E9F4E0E4918E2F90E0D2
:1020C000E9E9F4E007C0E1ECF4E0E4918E2F90E060
:1020D000E1ECF4E0009709F4A1C0A9CFE7EBF4E04C
:1020E000E4918E2F90E0E7EBF4E0F4CFEFE9F4E039
:1020F000E4918E2F90E0EFE9F4E0ECCF411551052B
:1021000071F04130510509F089C089E090E0E7E7BE
:10211000F4E08DCF82E190E0E7E8F4E088CF89E059
:1021200090E0EEE5F4E083CF80E490E0ECE0F4E0D2
:102130007ECF8091E602882309F45ACF853009F4D6
:1021400057CF8091E80083FD53CF8091E80082FD56
:1021500082CF8091E80080FF78CF9091F30080914A
:10216000F2002115310519F08830910550F041E059
:10217000089709F040E08091E8008E778093E800AE
:1021800064CF44914093F10031962150310901967A
:10219000E8CF803809F042C08091E800877F8093C3
:1021A000E8008091E7028093F10092CE811136C061
:1021B0001091EA02123090F58091E800877F8093B9
:1021C000E8001093E7020E94FC02112311F084E062
:1021D00005C08091E30087FDFACF81E08093E6029D
:1021E00042E061EC81E00E941B0342E261EC82E08C
:1021F0000E941B0313C08091EA02813079F481E0D0
:10220000933009F080E08093E5021092E90080911C
:10221000E800877F8093E8000E94FC028091E8003C
:1022200083FF0AC08091E800877F8093E800809157
:10223000EB0080628093EB00AA960FB6F894DEBFA5
:102240000FBECDBFDF91CF911F9108951F920F92C6
:102250000FB60F9211242F933F934F935F936F9379
:102260007F938F939F93AF93BF93CF93DF93EF931E
:10227000FF93D091E900DF708091EC00C82FC1700E
:1022800080FDC0E81092E9008091F000877F809384
:10229000F00078940E94610E1092E9008091F000A5
:1022A00088608093F000CD2BCF70C093E900FF9140
:1022B000EF91DF91CF91BF91AF919F918F917F91DE
:1022C0006F915F914F913F912F910F900FBE0F90A3
:1022D0001F9018951F920F920FB60F9211242F93F3
:1022E0003F934F935F936F937F938F939F93AF939E
:1022F000BF93EF93FF938091E10082FF09C080912B
:10230000E20082FF05C08091E1008B7F8093E100B5
:102310008091DA0080FF24C08091D80080FF20C027
:102320008091DA008E7F8093DA008091D90080FF5F
:102330009FC080E189BD82E189BD09B400FEFDCF67
:1023400081E08093E6028091C102811109C00E9460
:1023500082020E944D038091E20084608093E2003B
:102360008091E10080FF17C08091E20080FF13C0E0
:102370008091E2008E7F8093E2008091E200806194
:102380008093E2008091D80080628093D80019BCCD
:1023900085E08093E6028091E10084FF2DC080916A
:1023A000E20084FF29C080E189BD82E189BD89B551
:1023B000982F917080FFFBCF8091D8008F7D809304
:1023C000D8008091E1008F7E8093E1008091E2004F
:1023D0008F7E8093E2008091E20081608093E20032
:1023E0008091E702882309F449C084E08093E602E3
:1023F0000E944C0E0E94D3068091E10083FF27C00B
:102400008091E20083FF23C08091E100877F809369
:10241000E10082E08093E6021092E7028091E10001
:102420008E7F8093E1008091E2008E7F8093E200B6
:102430008091E20080618093E20042E060E080E011
:102440000E941B038091F00088608093F000FF9150
:10245000EF91BF91AF919F918F917F916F915F911C
:102460004F913F912F910F900FBE0F901F90189595
:1024700019BC1092E6021092C10272CF8091E30063
:1024800087FD93E09093E602B3CF882309F459C007
:10249000823871F40E94D30681FF53C089E30E9401
:1024A000E8050E94780589E30E94BD050C94780533
:1024B000833859F40E94D30680FF43C083E50E940D
:1024C000E8050E94780583E5EFCF843859F40E942F
:1024D000D30682FF36C087E40E94E8050E94780593
:1024E00087E4E2CF9CEF980F913AF0F290E2980FD8
:1024F000983088F4877021E030E0A90102C0440FD1
:10250000551F8A95E2F7CA0180959091710289233F
:1025100080937102CBCF9BE5980F933020F490E02D
:1025200080E00C94BD0698E5980F973120F490E078
:1025300080E00C94A706803F20F00E941B040C94BE
:10254000A90D0895882309F408C18238B9F40E94BE
:10255000D30681FD02C189E30E94E8050E94780547
:102560002FEF81EE94E0215080409040E1F700C0D1
:10257000000089E30E94BD050C9478058338A1F41E
:102580000E94D30680FDE9C083E50E94E8050E9411
:1025900078052FEF81EE94E0215080409040E1F7E4
:1025A00000C0000083E5E6CF8438A1F40E94D30682
:1025B00082FDD3C087E40E94E8050E9478052FEFD2
:1025C00081EE94E0215080409040E1F700C000008F
:1025D00087E4D0CF9CEF980F913A18F40E94E80559
:1025E000CBCF90E2980F983068F4877021E030E00C
:1025F00001C0220F8A95EAF780917102822B8093A5
:102600007102BACF9BE5980F933070F4853A31F0A0
:10261000863A39F083E890E00C94BD0681E890E0BA
:10262000FBCF82E890E0F8CF98E5980F973108F05B
:102630008EC0883A09F446C0893A09F446C08A3AFD
:1026400009F446C08B3A09F446C08C3A09F446C0F6
:102650008B3B09F446C08C3B09F446C08D3A09F423
:1026600046C0803B09F446C08E3A09F446C08F3A12
:1026700009F446C0813B09F446C0823B09F446C0D8
:10268000833B09F446C0843B09F446C0853B09F40A
:1026900046C0863B09F446C0873B09F446C0883BE8
:1026A00009F446C0893B09F446C08D3B09F446C095
:1026B0008E3B09F446C08A3B09F446C090E080E0B6
:1026C0000C94A70682EE90E0FBCF89EE90E0F8CF65
:1026D0008AEE90E0F5CF85EB90E0F2CF86EB90E0CC
:1026E000EFCF83EB90E0ECCF84EB90E0E9CF87EB8A
:1026F00090E0E6CF8CEC90E0E3CF8DEC90E0E0CF83
:1027000083E891E0DDCF8AE891E0DACF82E991E0D9
:10271000D7CF84E991E0D4CF81E292E0D1CF83E2B8
:1027200092E0CECF84E292E0CBCF85E292E0C8CFB8
:1027300086E292E0C5CF87E292E0C2CF8FE690E0DA
:10274000BFCF80E790E0BCCF8AE292E0B9CF803F74
:1027500020F00E94E0040C94A90D0895CF93C82F97
:102760000E94A212C93349F42FEF87EE93E0215063
:1027700080409040E1F700C000008C2FCF910C9476
:1027800045120F931F93CF93DF93C62FD42F022FA1
:10279000FC0182818823A1F06093F5010E949D0DC8
:1027A0009093E1018093E001C77081E001C0880F40
:1027B000CA95EAF7DF91CF911F910F910C949D0676
:1027C0001091F501161335C08091E0019091E1015F
:1027D0000E944805883C910560F5C0E2CD0F1D17A9
:1027E000B9F080E2810F883040F4177081E001C0B9
:1027F000880F1A95EAF70E949206C83048F481E0E3
:102800009D2F977001C0880F9A95EAF70E949D0648
:10281000802F0E94AE13C83098F4D77081E001C0B9
:10282000880FDA95EAF7DF91CF911F910F910C9401
:102830009206C77081E001C0880FCA95EAF7F3CF0E
:10284000DF91CF911F910F9108954F925F926F92F8
:102850007F928F929F92AF92BF92CF92DF92EF9230
:10286000FF920F931F93CF93DF9300D000D00F926E
:10287000CDB7DEB76C01FC0183819481892B39F0DF
:102880001081F180812F8F218F3F09F076C60F9044
:102890000F900F900F900F90DF91CF911F910F919C
:1028A000FF90EF90DF90CF90BF90AF909F908F9070
:1028B0007F906F905F904F9008950E946E09082F4F
:1028C000682F89819A810E944506E12FF0E026E079
:1028D000F29EE00DF11D112434E5039FE00DF11D82
:1028E0001124EE0FFF1FE455FF4F059114910230A4
:1028F0008DE51807F1F5F6018281882309F44EC0B1
:102900008091820291E0980F9770887F953008F44B
:10291000892B80938202809182028770FFEF8F9FC4
:10292000C001112495958795959587959927909342
:1029300089008093880090938B0080938A00909305
:102940008D0080938C0040918202509183026091AF
:102950008402709185028FE090E00E940E226091C7
:102960006A0270916B0280916C0290916D020E94DC
:10297000F309F6018281882389F0033EFCE51F07F5
:1029800009F4CCC008F0B6C0013E3CE5130709F4D9
:10299000BEC0023E8CE5180709F4BEC017FFEBC0AD
:1029A000F6018281882309F44DC0809171028093E1
:1029B000F4011092710280917E02813009F4B6C058
:1029C000882309F4AFC0823009F4BDC0843009F413
:1029D000C1C08FE39CE90197F1F700C000005801E6
:1029E000E894B7F84CE0E42EF12C95010E2C02C0CF
:1029F000369527950A94E2F72F7087E290E031F040
:102A0000822F90E02A3008F0AAC04D960E94AE13A3
:102A100094E0E91AF108ECEFEE16EFEFFE0629F765
:102A200080917E02813009F4A0C0882309F499C006
:102A3000823009F496C0843009F49BC08091F4017F
:102A400080937102F6018281882309F4A7C5109250
:102A5000F5010631FCE51F0709F480C208F0D9C072
:102A600001303CE5130709F482C108F0ECC0011500
:102A70001C4509F43FC1F60100811181882309F446
:102A80009DC2C8010E946E09F82E682FC8010E94DD
:102A90004506B8018F2D0E9422078C01B82EF60141
:102AA000E580E2943FE0E322F280F11010927002A0
:102AB00080916E02877079F0FF2069F080E2800FCC
:102AC000883048F082E00E94090E80916E02877083
:102AD000AA24A3948111A12C912E92942FE09222EA
:102AE000FBE0F91508F4A4C2E92DF0E0E458FC4D30
:102AF0000C94E221043E9CE5190791F084E0053E28
:102B0000ECE51E0709F04ACF80937E0202C01092C6
:102B10007E020E94E60B42CF81E0F6CF82E0F4CF46
:102B200083E0F2CF82EE0E94A21253CF83E00E9494
:102B3000880688E10E94A21288E10E94451283E083
:102B40000E947D0646CF82EE0E94A21287E50E9477
:102B5000AE133FCF86EE0E94AE1388E1F8CF069702
:102B600055CF82EE0E94451269CF8CE20E94AE13CF
:102B700065CF88E2FBCF033FFCE51F07D9F140F5A5
:102B8000083D3CE5130791F1093D8CE51807F1F18B
:102B9000073D9CE5190709F055CF26E241EE61EEAD
:102BA000C6010F900F900F900F900F90DF91CF9173
:102BB0001F910F91FF90EF90DF90CF90BF90AF905B
:102BC0009F908F907F906F905F904F900C94C11367
:102BD000053FECE51E07B1F088F0063F2CE5120733
:102BE00009F030CF27E245EE66EEDACF27E245EE78
:102BF00065EED6CF26E241EE60EED2CF27E245EE7B
:102C000064EECECF26E241EE62EECACF28E241E08A
:102C1000EFCF0E3DFCE51F0709F4B2C068F40C3D90
:102C20003CE5130709F4C3C00D3D1C4509F023CF53
:102C300082E08093C0022BCE98012A5F3C4527306A
:102C4000310508F018CF882309F415CF90E080E013
:102C50000E94F6218F3E9E4F11F00E94EC0B0E94C5
:102C60007C0A90939502809394020F30FCE51F0735
:102C700009F455C108F0CDC008303CE5130709F44C
:102C800034C108F0A4C004309CE5190709F41DC143
:102C900008F090C00230FCE51F0709F412C18091D2
:102CA0009402826003301C4509F4A3C06091940231
:102CB0001091950284E090E00E94FC21612F81E256
:102CC00090E00E94FC210F900F900F900F900F90BA
:102CD000DF91CF911F910F91FF90EF90DF90CF90F8
:102CE000BF90AF909F908F907F906F905F904F902C
:102CF0000C944C0E0E944C0EEFEFF4E32CE0E150EC
:102D0000F0402040E1F700C00000F89481E080939B
:102D1000E00080E28093D8001092C9008FE19EE429
:102D20000197F1F700C000001DBA109268001CBCAA
:102D300010BE1FBA10927A0010926E0010926F00AF
:102D400010927100109272001092C9001092BC0093
:102D500014B817B81AB81DB810BA1092BC0015B83C
:102D600018B81BB81EB811BA0C94003F90CD9091C2
:102D7000B102892F8E7F90FF81608093B10287CD51
:102D80000F900F900F900F900F90DF91CF911F91A8
:102D90000F91FF90EF90DF90CF90BF90AF909F90FA
:102DA0008F907F906F905F904F900C94EC0B1092EF
:102DB000C0026DCD80919402806106303CE513071E
:102DC000C1F008F486C080919402806212C00B307A
:102DD0009CE5190709F497C078F40930FCE51F0752
:102DE00009F487C0809194028C600A301C4509F078
:102DF0005DCF809394025ACF809194028B7F0D30E7
:102E00003CE51307B1F308F482C080919402877FF8
:102E1000F0CF0A3F9CE5190709F45FC050F5023175
:102E2000FCE51F0709F483C068F400313CE5130793
:102E300009F479C001311C4509F038CF8091940222
:102E40008F7BD7CF04319CE5190709F47EC008F4C5
:102E500074C005311C4509F029CF8091940282FB92
:102E6000992790F921E0922790FB82F990FB83F952
:102E7000C0CF0D3F2CE5120709F44DC070F40B3F95
:102E80008CE5180771F1809195028E7F0C3F1C45EF
:102E900009F00CCF8093950209CF0F3FECE51E0798
:102EA00009F44FC060F101151D4509F0FFCE809176
:102EB0009502982F909591708E7F892B90FB81F9C8
:102EC000E9CF80919402816094CF809194028460D4
:102ED00090CF8091940288608CCF80919502816020
:102EE000D9CF809195028260D5CF80919402806481
:102EF00080CF0E944C0E8091940280687ACF80919E
:102F000095028360C7CF809194028E7F72CF8091AB
:102F100094028D7F6ECF809195028D7FBBCF809183
:102F200094028F7E66CF809194028F7D62CF0E9443
:102F30004C0E809194028F775CCF80919402837FB6
:102F400058CF809195028C7FA5CF0E944C0E909116
:102F50009402892F97FB87F980584BCF809171029B
:102F60008A7A91E009F490E09093F60181111AC0F9
:102F700089E20E94E8050F900F900F900F900F903C
:102F8000DF91CF911F910F91FF90EF90DF90CF9045
:102F9000BF90AF909F908F907F906F905F904F9079
:102FA0000C94780585E3E5CF8091F601811104C08A
:102FB00089E20E94BD05DFCF85E3FBCFC8010E94F7
:102FC0001C06F82E66CD212F2F70E22E107F19F0EF
:102FD000E29490EFE922FF20C9F0EE2069F080E250
:102FE000800F883010F0B1100BC080917102E82A78
:102FF000E09271020E947805802F0E94A21218C0F0
:1030000080917002E82AE0927002F4CF802F0E9433
:103010004512EE2069F0E094005E083010F0B11027
:103020003CC080917102E822E09271020E94780512
:10303000292D2850330B2430310510F40E94D3067B
:10304000AA2009F424CC80916E0280FD20CCF601E8
:1030500012828595859585950E94210EC6010E9454
:10306000251480916E028595859585950F900F901A
:103070000F900F900F90DF91CF911F910F91FF90C4
:10308000EF90DF90CF90BF90AF909F908F907F9008
:103090006F905F904F900C94E60D80917002E82243
:1030A000E0927002C3CF312F3F70832E107F103219
:1030B00019F0829480EF8822802FBB2041F091E0AC
:1030C000B91631F1FF2079F1EE2041F195CFFF20C3
:1030D00091F090917202892F8829E11003C00E941B
:1030E0009D06A6CFE1E0EE12FACF981709F4A0CF23
:1030F000809372029DCFE11006C00E947205882D58
:103100000E94920695CFF1E0EF1609F491CFF5CF2A
:10311000FF2031F021E02E1508F48ACF882DDFCF73
:10312000E11086CFECCFEE2051F3893349F43FEF25
:1031300087EE93E0315080409040E1F700C00000FE
:10314000802F0E94451274CF812F869586958370BB
:1031500061F0813009F06CCFC8019370F11002C0AA
:1031600090E080E00E94A70663CFC8019370F11041
:1031700002C090E080E00E94BD065ACFFF2009F116
:10318000053F99F0063FB9F0043F49F48091F701FB
:103190009091F80181609093F8018093F701802F5E
:1031A0000E94E0040E94A90D43CF8091F701909105
:1031B000F8018260F0CF8091F7019091F80184606E
:1031C000EACF053F89F0063FA9F0043F49F480911A
:1031D000F7019091F8018E7F9093F8018093F701A9
:1031E000802F0E941B04DECF8091F7019091F8019F
:1031F0008D7FF2CF8091F7019091F8018B7FECCF1A
:10320000812F837009F066C0F11012CF802F829554
:1032100086958770880F880F602F6F70462E512C0F
:10322000712C612C082E04C0440C551C661C771CA4
:103230000A94D2F740E050E0BA0104FF0FC04FE01B
:1032400050E060E070E004C0440F551F661F771F18
:103250008A95D2F74095509560957095812F869507
:1032600086958370823019F1D8F400917302109121
:1032700074022091750230917602813069F0442900
:10328000552966297729CB01BA016023712382234E
:1032900093230E94420ECCCE402A512A622A732ADE
:1032A000CB01BA016429752986299729F2CF4429CF
:1032B0005529662977290091730210917402209193
:1032C000750230917602CB01BA01602771278227FF
:1032D0009327DFCF8695FF2011F0812F81708823FF
:1032E00009F4A6CE802F829586958770880F880F67
:1032F000602F6F70462E512C712C612C082E04C04B
:10330000440C551C661C771C0A94D2F740E050E030
:10331000BA0104FF0FC04FE050E060E070E004C06D
:10332000440F551F661F771F8A95D2F74095509519
:1033300060957095812F869586958370823019F1FE
:10334000D8F400916A0210916B0220916C023091C6
:103350006D02813069F04429552966297729CB010E
:10336000BA0160237123822393230E94DA0D60CE79
:10337000402A512A622A732ACB01BA01642975298D
:1033800086299729F2CF4429552966297729009162
:103390006A0210916B0220916C0230916D02CB0198
:1033A000BA016027712782279327DFCF1F70FF2084
:1033B00029F0812F0E94210E802F91CE802F0E9414
:1033C0009206812F0E94E60D33CE802FE2EFBE16CB
:1033D00009F44EC0EB1578F0F0EFBF1619F121EFAC
:1033E000B21609F43DC0FF2009F465C0E11004CE17
:1033F000812F8F713AC033EFB31609F43EC094EFBA
:10340000B912F1CFFF2009F44BC01F71812F0E9428
:10341000210EF8E01F9FC0011124836080936E028B
:10342000812F23C0FF20B9F0E11002CE1F7161E0AF
:1034300070E080E090E004C0660F771F881F991F3E
:103440001A95D2F700916A0210916B0220916C02DA
:1034500030916D02A6CFE1E0EE1508F4E9CDE6CF9C
:10346000812F8F71FF2009F4ADCF0E94210EE0CD96
:10347000812F8F71FF20C9F3A5CF60E070E0CB01F1
:10348000FF2009F472CF1F7161E070E080E090E0EE
:1034900004C0660F771F881F991F1A95D2F765CF52
:1034A00081E00E94090E21E02E1508F0C1CD82E0D6
:1034B0000E94090EBDCDE11038CE812F8F7182CFD1
:1034C000E2EFBE16D1F1EB1500F1F0EFBF1649F1B6
:1034D00021EFB216D1F18091F901EE2009F441C03B
:1034E000882341F08091FA0191E089278093FA01C5
:1034F0001092F901802FF11080CD0E94451286E0D4
:10350000F60111928A95E9F793CD34EFB316C1F025
:10351000B31688F085EFB812DECFF11089CD81E0C7
:1035200007C0FF2009F484CD8091FA0191E089273A
:103530008093FA017DCD81E0F826F092FA0178CDF2
:10354000F11076CD1092FA0173CDFF2039F0809101
:10355000F901882349F31092F9016ACDEE2021F395
:1035600067CD882309F464CDF11062CD8091FA0112
:1035700091E089278093FA01EECF85E0DE01119674
:1035800001900D928A95E1F7F601228189819A8155
:10359000211193C90E941C06082F97C90631FCE52A
:1035A0001F0709F401CD60F401303CE5130709F46D
:1035B0006EC908F060CA01151C4509F468C95BCAE8
:1035C0000E3DFCE51F0709F462C908F054CA0C3D22
:1035D0003CE5130709F45BC90D3D1C4509F457C9C7
:1035E0004ACA1F93CF93DF9380910002807FC1F47A
:1035F0008091FD018823A1F080913202C0910102E7
:103600006091FB017091FC014091FE015091FF011E
:10361000D62FD723DA01A095B09516E0C81304C0C1
:10362000DF91CF911F91089590E04115510511F060
:10363000DF3F31F401968770F1CF2A0F3B1F17C08F
:10364000189FF001199FF00D1124EE5FFD4F2181AD
:103650002713F0CF20812613EDCF22812111EACF4D
:10366000238134812417350740F3241B350B283C74
:10367000310500F7209100022F7020612093000295
:1036800026E0289FF001299FF00D1124E95FFD4FEE
:1036900080818F70806180838BEF91E00E94251480
:1036A000DF91CF911F910C947306BF92CF92DF925E
:1036B000EF92FF920F931F93CF93DF93CDB7DEB7B7
:1036C00061970FB6F894DEBF0FBECDBF8C0185E0C9
:1036D000F801DE011D9601900D928A95E1F7D8015F
:1036E0002C9111963C9111971296EC901297809123
:1036F000FE019091FF01009709F463C14091FB0125
:103700005091FC01642F65236F3F09F45AC1139651
:10371000CD90DC90B090FD01BB2009F413C1C81618
:10372000D906C0F1F601E81BF90BCF01FF24F39491
:10373000883C910508F0F12C80910002982F907F31
:10374000FF2009F4C1C091117DC0FE2C531327C086
:10375000421325C0E11023C08F7080618093000266
:103760008BEF91E00E94251480910002D8011596FC
:103770008C938F2D61960FB6F894DEBF0FBECDBF30
:10378000DF91CF911F910F91FF90EF90DF90CF903D
:10379000BF900895809590958C0D9D1DC7CFCD2825
:1037A00029F0822F83238F3F09F035C180E0B82FA5
:1037B000B170DB2E80FF3CC080913202409101024B
:1037C00056E0841315C02D873E878D859E850E9407
:1037D000B009292F22952F702230F0F0243018F5EF
:1037E0009F70F1F0F8019581907FD1F4D12C1EC02B
:1037F00090E0589FF001599FF00D1124EE5FFD4FAE
:103800006181361306C06081261303C06281E6120F
:103810000FC001968770D5CF9F7011F0882331F3C8
:10382000805E883018F3C8010E942514FD2CA1CFBA
:10383000EE2009F49ECF8091000281608093000207
:10384000F12C97CF531313C0421311C0E1100FC0D6
:10385000D80115968C93C8010E94251486E0F801C2
:10386000ABEFB1E001900D928A95E1F782CF2D8701
:103870003E878D859E850E94BA09882309F1EE2036
:10388000F9F080910002803270F02091FB013091BC
:10389000FC0138872F831986DB86CA868C87CE0188
:1038A00007960E94251486E0F801ABEFB1E0019085
:1038B0000D928A95E1F70E94F11AFF24F39459CFF3
:1038C000C8010E942514F9CF91110CC08BEF91E033
:1038D0000E94251486E0EBEFF1E0DF011D928A954E
:1038E000E9F747CF531312C0421310C0E1100EC0C6
:1038F000F8018583C8010E942514EBEFF1E086E012
:10390000DF011D928A95E9F7FB2C33CF2D873E8787
:103910008D859E850E94BA09882391F2EE2081F25E
:1039200080910002803208F4BECF2091FB013091DB
:10393000FC013A8329831B82DD82CC828E83CE01F7
:103940000196AFCFC816D90640F0C81AD90AB8EC0C
:10395000CB16D10448F0F12CBDCF809590958C0DFD
:103960009D1D883C9105B8F7FE2CEE2009F4A8CFE8
:10397000531316C0421314C08091000280FD6ECF15
:10398000982F907F09F46ACFF8018583903F09F45E
:1039900062CF982F907F905F8F70892B85835BCF4C
:1039A0002D873E878D859E850E94BA0981117BCF28
:1039B00080910002816080930002C8010E9425145A
:1039C000D8CEEE2009F47CCF2D873E878D859E854D
:1039D0000E94BA09F82E882309F472CF86E0F80114
:1039E000ABEFB1E001900D928A95E1F78091FB0178
:1039F0009091FC010E94B00992959F70963041F41D
:103A00008091FA0191E089278093FA019093F9015E
:103A10000E94F11AAECE81E08E25C9CE1F93CF93BE
:103A2000DF93CDB7DEB767970FB6F894DEBF0FBE52
:103A3000CDBF6D8B7E8B8F8B8E899F89892BE1F01B
:103A4000852F84238F3F09F098C05FEF4FEF14C09C
:103A50003091FA01332309F44EC0E42FF0E036E050
:103A6000539FE00DF11D1124EE0FFF1FED5EFE4F81
:103A700040815181822B8C931A8A198A4B8B5C8BE3
:103A800085E0FE017396DE011D9601900D928A95E8
:103A9000E1F786E0FE013D96DE01179601900D925A
:103AA0008A95E1F7CE0107960E94551B811112C03D
:103AB00086E0FE013796DE01119601900D928A95FF
:103AC000E1F78A859B85892B29F08F819885892349
:103AD0008F3FC9F516E0809132029091010289135F
:103AE00020C067960FB6F894DEBF0FBECDBFDF9142
:103AF000CF911F91089580958223BDCF96E0929F2C
:103B0000D001939FB00D1124AE5FBD4FFE013196E1
:103B100001900D929A95E1F7809301020E9473063D
:103B2000D9CF819FC00111248E5F9D4F0E94551BEC
:103B30008823B9F28091320290E00196877099272C
:103B400080933202C8CF2091010230E0C901019672
:103B500087709927409132024817190679F60E941A
:103B60004C0E109201021092320286E0EBEFF1E06F
:103B7000DF011D928A95E9F7ADCF81E090E0042E38
:103B800001C0880F0A94EAF7A52FB0E0AA51BE4FF2
:103B90002C913D8931115CCF322F38235BCF8F922E
:103BA0009F92AF92BF92CF92DF92EF92FF920F93CC
:103BB0001F93CF93DF938091060190910701892B8A
:103BC00091F08091DE018F5F8093DE0181110BC047
:103BD0000E94B40C90E09093070180930601892B1A
:103BE00011F40E946C0B06E812E07801C0E0912C01
:103BF00037E0C32ECC0E8C2F0E94600C8C2D0E94BF
:103C0000600C8C2F0E942B0DD7019D917D01D12C32
:103C1000891729F0FD0131978083DD24D3948C2D01
:103C20000E942B0DF7019681891709F466C08683DF
:103C300081E08D29982A0E94660ACF5FC730C1F6BD
:103C40000E949D0D6AEF70E00E94BA21882ED091EB
:103C5000DD01DD2309F45DC01092DD01E0917C02FD
:103C6000F0917D027F012EE0E20EF11C40E0CBEFEF
:103C70002AEFC22ED12C51915B3F81F0652F70E06D
:103C8000282D392F8517D8F1261B370B2E313105FA
:103C9000E4F19F0121503109D901CC93EE16FF06C2
:103CA00051F74093DD01911002C0411134C01092D0
:103CB000DC01A0917C02B0917D022091DD01E9E957
:103CC000F2E047EA52E090E06191E80139918E011B
:103CD000631751F06C916B3FD1F48C93BF0161502D
:103CE0007109EB01388321E011964E175F0761F7E8
:103CF0002093DD019093DC0112C080E09ACFD601C1
:103D0000A61BB70B2A0F3B1FC1CF4D2FC7CF91E08A
:103D1000EBCF9110CCCF9091DC019111C8CF892DC0
:103D2000DF91CF911F910F91FF90EF90DF90CF9097
:103D3000BF90AF909F908F900895CDB7DEB72A9730
:103D40000FB6F894DEBF0FBECDBF84B7877F84BFA8
:103D50000FB6F894A8958091600088618093600008
:103D6000109260000FBE80E88093610010926100A5
:103D700085B7806885BF85B7806885BF0E9482024D
:103D80000E944D038091E20084608093E200789469
:103D90008091E6028823A1F01091E9001F709091B4
:103DA000EC00892F817090FD80E8182B1092E900BB
:103DB0008091E80083FD0E94610E1F701093E9005E
:103DC00082E084BD93E095BD9AEF97BD80936E002D
:103DD0000E94B40C90E090930701809306010E942A
:103DE000660A0E94750AA6E8B2E0E9E9F2E01192DB
:103DF0001D9222E0E73AF207D1F78EE090E00E94B0
:103E0000302280937C0290937D02FC010E962BEF72
:103E100021938E179F07E1F790E080E00E94F62142
:103E20008F3E9E4F11F00E94EC0B8CE090E00E94C0
:103E3000E82190E0B0E0A0E080937E0290937F02C2
:103E4000A0938002B093810289EA8093800089E088
:103E50008093810024982C983F988AB18F7C8AB9EE
:103E60006E98479A8BB180638BB9769A8FE090E019
:103E70000E94F021609382027093830280938402F7
:103E80009093850267708FEF689FB001112475953C
:103E9000679575956795772770938900609388007B
:103EA00070938B0060938A0070938D0060938C00F8
:103EB0000E946C0B90E080E00E94F6218F3E9E4FA6
:103EC00011F00E94EC0B82E090E00E94E8218093C8
:103ED000B1020E947C0A909395028093940283E041
:103EE00090E00E94E821682F70E090E080E00E945E
:103EF000420E88E091E09093970280939602BB2453
:103F0000B394AA24AA94EE24E394F12C90E1592EC0
:103F100022E1622E38E1C32ED12C40E4742E809130
:103F2000E602853009F469C00E94CF1DA2EBB2E021
:103F3000E9E9F2E010E000E0702F61912D91261781
:103F400009F4A8C090E080E0262730E0982EA9016F
:103F5000082E02C0559547950A94E2F740FF95C098
:103F600089837A83C70102C0880F991F9A94E2F768
:103F70004C01862F90E08821992121E0892B09F4BA
:103F800020E02B830E949D0D8160782F9D838C8380
:103F900049815A816B818D810E940E1DF801EE547A
:103FA000FD4F8081882680828091AE029091AF0281
:103FB0000E9448059C019091AD02992319F024318B
:103FC000310578F02091A9029090AA021091AB02DD
:103FD0000091AC02211174C0812F8929802B09F036
:103FE000E5C00E94D3069091B002891709F497CFDB
:103FF0000E94D3068093B00292CF8091E602843073
:1040000009F1109298020FB6F894A895C09260003A
:104010000FBE7092600083B7817F846083BF83B7D7
:10402000816083BF7894889583B78E7F83BF0FB6F6
:10403000F894A89580916000886180936000109248
:1040400060000FBE8091E502882309F468CF0E94CA
:10405000B40C90E090930701809306010E94660AD9
:104060000E94750AE9E9F2E0119242E0E73AF407AA
:10407000D9F70E94CF1DE9E9F2E08191811182C058
:1040800082E0E73AF807C9F74ACF019686309105F2
:1040900009F05CCF0F5F1F4F0E30110509F04CCFB8
:1040A000AE82AF8218860E949D0D8160782F9A871C
:1040B00089874E815F8168858A850E940E1D74CF35
:1040C0009F3F19F09F5F9093AD02121624F40E9457
:1040D000BC048093A9028091A90287FF05C00E94B9
:1040E000BC0481958093A902191424F40E94BC0495
:1040F0008093AA028091AA0287FF05C00E94BC0497
:1041000081958093AA023091A9023323A1F02091D6
:10411000AA02222381F045EB3403C0011124992324
:1041200059F19093A90245EB240390011124332304
:1041300031F13093AA02111624F40E949A0480935C
:10414000AB028091AB0287FF05C00E949A04819563
:104150008093AB02101624F40E949A048093AC0260
:104160008091AC0287FF05C00E949A0481958093DC
:10417000AC020E94A90D35CFB092A902D4CFB09263
:10418000AA02D9CF59BC69BC09B400FEFDCF809109
:10419000D8008F7D8093D8008091E000826080936A
:1041A000E0008091E00081FDFCCFB9CE9F3F09F097
:1041B00089CF9ACF1F921FB61F9211248F939F937E
:1041C000AF93BF9380919802811113C080917702C1
:1041D00090917802A0917902B0917A024196A11D46
:1041E000B11D8093770290937802A0937902B093E7
:1041F0007A02BF91AF919F918F911F901FBE1F9028
:1042000018951092B9008CE08093B8000895EF9251
:10421000FF920F931F93CF93DF93182FEB01109210
:10422000BC0084EA8093BC000E949D0D7C018091BB
:10423000BC0087FF27C08091B900887F883029F0B3
:104240008091B900887F8031D9F51093BB0084E854
:104250008093BC000E949D0D8C018091BC0087FF63
:1042600024C02091B900287F90E080E02831B1F08F
:1042700081E090E0203411F490E080E09195819508
:1042800091090CC0CF3FDC0791F20E949D0D8E1961
:104290009F098C179D0758F28EEF9FEFDF91CF910A
:1042A0001F910F91FF90EF900895CF3FDC07A9F287
:1042B0000E949D0D801B910B8C179D0770F2ECCF17
:1042C0008FEF9FEFEBCF0F931F93CF93DF93EB0114
:1042D0008093BB0084E88093BC000E949D0D8C01FC
:1042E0008091BC0087FF11C02091B900287F81E038
:1042F00090E0283211F490E080E091958195910949
:10430000DF91CF911F910F910895CF3FDC0741F3CB
:104310000E949D0D801B910B8C179D0708F38EEF5B
:104320009FEFEECF0F931F93CF93DF93EC0184E8C1
:104330008093BC000E949D0D8C018091BC0087FF82
:1043400008C08091BB0090E0DF91CF911F910F9149
:104350000895CF3FDC0789F30E949D0D801B910BD0
:104360008C179D0750F38EEF9FEFEECF84E980937B
:10437000BC000895AA1BBB1B51E107C0AA1FBB1FAD
:10438000A617B70710F0A61BB70B881F991F5A95E1
:10439000A9F780959095BC01CD01089597FB072E54
:1043A00016F4009407D077FD09D00E94BA2107FCCB
:1043B00005D03EF4909581959F4F08957095619535
:1043C0007F4F0895EE0FFF1F0590F491E02D0994A3
:1043D000F999FECF92BD81BDF89A992780B50895CD
:1043E000A6E1B0E044E050E00C942222A8E1B0E065
:1043F00042E050E00C942222262FF999FECF92BD84
:1044000081BDF89A019700B4021639F01FBA20BD99
:104410000FB6F894FA9AF99A0FBE08950396272FCB
:104420000E94FD210E94FC21252F0E94FD21242FA6
:104430000C94FD210196272F0E94FD210C94FC2154
:10444000DC01CB01FC01F999FECF06C0F2BDE1BD54
:10445000F89A319600B40D9241505040B8F7089543
:104460000F931F93CF93DF938230910510F482E076
:1044700090E0E091F202F091F30230E020E0B0E051
:10448000A0E0309799F42115310509F447C0281BA5
:10449000390B24303105C0F58A819B816115710586
:1044A00071F1FB0193838283FE0111C04081518130
:1044B0000281138148175907F8F04817590799F4F2
:1044C000109761F012960C93129713961C933296E4
:1044D000CF01DF91CF911F910F9108950093F202C8
:1044E0001093F302F4CF2115310519F04217530749
:1044F00018F49A01BD01EF01DF01F801C2CF9093DA
:10450000F3028093F202D0CFFE01E20FF31F8193FA
:1045100091932250310939832883DACF2091F00218
:104520003091F102232B41F42091020130910301DB
:104530003093F1022093F0022091000130910101AB
:104540002115310541F42DB73EB74091040150913A
:104550000501241B350B4091F0025091F1024217E6
:10456000530708F0B5CF241B350B2817390708F47B
:10457000AFCFBC016E5F7F4F2617370708F4A8CF77
:10458000640F751F7093F1026093F002FA0181933A
:1045900091939ECFCF93DF930097E9F0FC01329780
:1045A00013821282C091F202D091F302DE0130E058
:1045B00020E02097A1F420813181820F931F209168
:1045C000F0023091F1022817390709F067C0F09323
:1045D000F102E093F002DF91CF910895DA01AE1776
:1045E000BF0708F040C012964D915C9113979D0152
:1045F0004115510599F7D9011396FC93EE93129743
:104600004D915D91A40FB51FEA17FB0779F48081E6
:1046100091810296840F951FD90111969C938E93D8
:104620008281938113969C938E931297B0E0A0E0C1
:104630008A819B810097B9F5FE0181919191E80FE4
:10464000F91F8091F0029091F1028E179F0719F6E1
:10465000109761F51092F3021092F202D093F102DA
:10466000C093F002B8CFB383A28340815181840FFD
:10467000951FA817B90771F44E5F5F4F8D919C91FC
:104680001197480F591F5183408312968D919C9129
:10469000938382832115310509F0ADCFF093F302A6
:1046A000E093F20298CFDE01EC01C2CF13961C9288
:1046B0001E921297D3CFF894FFCFC909C909D20926
:1046C000D209D409D209D209D209C909C909D9091B
:1046D000D209D209D9094D0A590A5E0A570A5C0A59
:1046E000630A610A440F6C0F0E116C0F0E119F0FBD
:1046F000C00F0E11C910D610E317E3175318531843
:10470000A418BE18601A18180019D619E519E51969
:104710000000F402200020001804260BFB0AC50A42
:104720008A0A01000D010D020D030D040D050D0097
:104730000C010C020C030C040C050C000B010B0209
:104740000B030B040B050B000A010A020A030A04FF
:104750000A050A00090109020903090409050900FB
:1047600008010802080308040805080007010702F9
:1047700007030704070507000601060206030604EF
:1047800006050600050105020503050405050500EB
:1047900004010402040304040405040003010302E9
:1047A00003030304030503000201020202030204DF
:1047B00002050200010101020103010401050100DB
:0C47C000000100020003000400050000DE
:00000001FF
